:1000000000CA0020D55A0200CBF80300C15A0200F2
:10001000C15A0200C15A0200C15A02000000000089
:10002000000000000000000000000000B95C0200B9
:10003000C15A020000000000715C0200C15A0200B7
:10004000815E0200432C0400815E0200815E02009A
:10005000815E0200815E0200815E0200815E02001C
:10006000F92B0400815E0200815E02002D2C040049
:10007000815E0200815E0200815E0200815E0200FC
:10008000815E0200815E0200815E0200815E0200EC
:10009000815E0200815E0200815E0200815E0200DC
:1000A000815E0200815E0200815E0200815E0200CC
:1000B000815E0200815E0200815E0200815E0200BC
:1000C000815E0200815E0200815E0200815E0200AC
:1000D000815E0200815E0200815E0200815E02009C
:1000E000815E0200815E0200815E0200815E02008C
:1000F000815E0200815E0200815E0200815E02007C
:100100007BB972B90029BEBF00204FF0004106E064
:1001100008BF00281CBF6FF000414FF0FF3000F017
:1001200057B8ADF1080C6DE904CE002909DB002BAE
:100130001ADB18F08AFFDDF804E0DDE9022304B0E1
:100140007047404261EB4101002B1BDB18F07DFF43
:10015000DDF804E0DDE9022304B0404261EB410137
:10016000524263EB43037047524263EB430318F080
:100170006CFFDDF804E0DDE9022304B0404261EBEE
:1001800041017047524263EB430318F05EFFDDF814
:1001900004E0DDE9022304B0524263EB43037047FD
:1001A00053B94AB9002908BF00281CBF4FF0FF31DE
:1001B0004FF0FF3000F00CB8ADF1080C6DE904CE43
:1001C00018F043FFDDF804E0DDE9022304B07047D6
:1001D000704700BF2DE9F00791E8F807B2E8021078
:1001E0005B1854EB0C04B2E802104D4156EB0C06C0
:1001F000B2E802104F4158EB0C08B2E8021059EB7C
:1002000001095AEB0C0A80E8F80780410130BDE88B
:10021000F00770472DE9F00791E8F807B2E80210FF
:100220005B1A74EB0C04B2E802108D4176EB0C06FD
:10023000B2E802108F4178EB0C08B2E8021079EBBB
:1002400001097AEB0C0A80E8F80780414042BDE8DA
:10025000F00770472DE9F007524290E87800B1E8C6
:1002600080071740DB1918EA020854EB080419EA62
:10027000020955EB09051AEA020A56EB0A0678C08C
:1002800090E87800B1E8800717407B4118EA02083F
:1002900054EB080419EA020955EB09051AEA020AA7
:1002A00056EB0A0678C080410130BDE8F007704780
:1002B0002DE9F007524290E87800B1E88007174036
:1002C000DB1B18EA020874EB080419EA020975EB53
:1002D00009051AEA020A76EB0A0678C090E8780067
:1002E000B1E880071740BB4118EA020874EB080424
:1002F00019EA020975EB09051AEA020A76EB0A0601
:1003000078C080414042BDE8F00770472DE9F00118
:1003100052424FF0040890E8300091E8C000A31B5F
:100320001340E41AF618EB1B1340ED1AFF1830C007
:10033000C0C1B8F10108EED1BDE8F001704700BFBF
:1003400000B592E8DC072DE9DC07B1E8805702B47C
:10035000A7FB02510A95A8FB020BE7FB6310E9FB20
:1003600062B00B91A8FB0351EAFB6201E7FB64B5A5
:10037000E7FB6605E8FB6615CDF830B0A9FB03B6D0
:10038000EAFB6316ECFB6356E8FB640BE9FB641BBA
:10039000EAFB645BECFB646B0D90ACFB0230059CEC
:1003A000EEFB6250E9FB6460EAFB64B0E7FB64319A
:1003B000E8FB6451069CE8FB6461E9FB64B1EAFB7D
:1003C00064010E93A7FB0432079CE7FB6462E8FB21
:1003D00064B2E9FB6402EAFB6412049CE9FB645327
:1003E000EAFB6463089CE7FB64B3E8FB6403E9FB96
:1003F0006413EAFB64230F955DF8049B99E80006FB
:10040000DDF80080A9FB0854EAFB68B4DDF8108031
:10041000ECFB6804EEFB6814E9FB6824EAFB683433
:10042000DDF80480EEFB6865E9FB68B5EAFB68056A
:10043000DDF81480ECFB6815EEFB6825E9FB6835F8
:10044000EAFB68450F96DDF80880AEFB0876E9FB0D
:100450006806EAFB6816DDF81880ECFB6826EEFB00
:100460006836E9FB6846EAFB6856DDF80C80ECFB71
:1004700068B7EEFB6807E9FB6817EAFB6827DDF859
:100480001C80ECFB6837EEFB6847E9FB6857EAFB2A
:10049000686708B000BD00BF2DE9F14F87B0FFF7D6
:1004A0004FFFDDF81C8008F1200888E8FF00FFBC42
:1004B00087E87F08BDE8F08F00B591E89857A3FB67
:1004C00003520195A3FB0401E3FB6420E3FB6710E7
:1004D0000292A3FB0752E3FB6802E4FB6415E3FB13
:1004E0006805E3FB69250391A4FB07B6E3FB6926D6
:1004F000E3FB6A56E4FB670BE4FB682BE3FB6A5BF8
:10050000E3FB6C6B0490A4FB0810E4FB6950E3FB75
:100510006C60E3FB6EB0E7FB6721E4FB6951E4FB31
:100520006A61E3FB6EB1E4FB6E010592A7FB083242
:10053000E4FB6A62E4FB6CB2E4FB6E02E7FB6E1262
:10054000E7FB6853E7FB6963E4FB6CB3E7FB6C0311
:10055000E7FB6E13E8FB6E230695A7FB0954E7FB48
:100560006AB4E7FB6C04E8FB6C14E8FB6E24E9FB5F
:100570006E34E8FB6865E7FB6AB5E8FB6A05E8FBF3
:100580006C15E9FB6C25E9FB6E35EAFB6E450796B9
:10059000A8FB0976E8FB6A06E9FB6A16E9FB6C260C
:1005A000EAFB6C36EAFB6E46ECFB6E56E8FB69B77D
:1005B000E9FB6907E9FB6A17EAFB6A27EAFB6C3784
:1005C000ECFB6C47ECFB6E57EEFB6E6700BD00BFAB
:1005D0002DE9F14F87B0FFF76FFFDDF81C8008F1C0
:1005E000200888E8FF00FFBC87E87F08BDE8F08F9F
:1005F00030B44FF0000310F8014B11F8015B013AE1
:1006000084EA050443EA0403F5D1A3F101034FEAA8
:10061000D37030BC704700BF4FF0000310F8012BBF
:10062000013943EA0203F9D1A3F101034FEAD37080
:10063000704700BF30B411F8014B12F8015B6C40F9
:1006400000F8014B013BF6D130BC70472DE9F007B3
:1006500091E8F807B2E802105B1854EB0C04B2E81A
:1006600002104D4156EB0C06B2E802104F4158EB18
:100670000C08B2E8021059EB01095AEB0C0A894147
:10068000B3F1FF3374F1FF3475F1FF3576F10006F5
:1006900077F1000778F1000879F101097AF1FF3A62
:1006A00051F100015B184C414D4156F1000657F1E4
:1006B000000758F1000859EBD1795AEB010A80E89C
:1006C000F807BDE8F00770472DE9F00791E8F80753
:1006D000B2E802105B1A74EB0C04B2E802108D4110
:1006E00076EB0C06B2E802108F4178EB0C08B2E80A
:1006F000021079EB01097AEB0C0A89415B184C4135
:100700004D4156F1000657F1000758F1000859EB2A
:10071000D1795AEB010A80E8F807BDE8F007704785
:1007200018EB040859EB05095AEB060A5BEB070BBB
:100730005FF0000C4CF1000C18EB050859EB0609B2
:100740005AEB070A5BEB070B50EB0C005FF0000C59
:1007500051EB0C0152EB0C0263414CF1000CB8EB75
:10076000070879F100097AF1000A7BEB040BA84134
:10077000B141A241B3416CF1000CBBEB050BB041A0
:10078000B941AA41BB416CF1000C4CF001068CF060
:10079000020718EB060859EB6C095AEB6C0A7BEB65
:1007A0006C0B70EB6C0471EB6C0572EB670653EB32
:1007B0006C076CEB6C0C18EB0C0059EB0C015AEB52
:1007C0000C025BF1000354F1000455F1000556EBF7
:1007D000DC7657EB0C0770472DE9F14F87B0FFF738
:1007E000AFFDDDF81080DDF81490DDF818A0FFF7FC
:1007F00097FFBDE8000FFFF793FF03B05DF8048B90
:1008000088E8FF00BDE8F08F2DE9F14F87B0FFF7D2
:1008100053FEDDF81080DDF81490DDF818A0FFF726
:100820007FFFBDE8000FFFF77BFF03B05DF8048B8F
:1008300088E8FF00BDE8F08F1FB50B4B01934FF424
:10084000B073ADF8083008238DF80A3083788DF83E
:100850000B3001A9FF2303208DF80C3000F06EFD52
:1008600005B05DF804FB00BF49E101001FB50B4B6B
:1008700001934FF48063ADF8083008238DF80A30F7
:1008800043788DF80B3001A9002302208DF80C303D
:1008900000F054FD05B05DF804FB00BF05E6010063
:1008A0001FB50023019303930B4B02930B4B1B7853
:1008B00083B10378002B0CBF012302238DF80B308A
:1008C00001A9FF2301208DF80C3000F037FD05B0A1
:1008D0005DF804FB0123F1E738010800381200201D
:1008E0001FB50A4B01934FF46273ADF8083008232B
:1008F0008DF80A3001A903788DF80B3000208DF8AF
:100900000C0000F01BFD05B05DF804FB2DE70100B5
:10091000F7B504460D4641B9124B5B78012B04D064
:10092000019101A80121FFF7F3FF23680E4E0F4F3D
:100930000733002D23F0070323600CBF204600205F
:1009400000F0D4FC002556F8043B0BB1384698471C
:1009500001350F2DF7D100F041FD236803442360DA
:1009600003B0F0BD38120020540000203A120020DD
:100970002DE9F04385B0974C0390064603A80D4639
:10098000FFF7C6FFA778E3784FF000091F44FFB2D6
:10099000C8465FFA89F39F4200F209810398033049
:1009A00020F00300002D0390414618BF002000F006
:1009B00061FE039B21791844039081B16379627CC5
:1009C000033020F00300002D1A440390A389D2B213
:1009D00018BF002000F0C2FE039B034403937E4F28
:1009E0007B68CBB1E17AB9B194F828300398002B39
:1009F00000F1070014BF4023252320F0070014BF97
:100A00004FF481722822002D039018BF002006F0B9
:100A1000CFF9039B03440393A17B91B123791BB9C5
:100A20007B6873B1E37A63B10398073020F0070065
:100A3000002D039018BF00200CF01AFE039B034406
:100A40000393664B1B6873B1A17961B10398E27B94
:100A5000033020F00300002D039018BF00209847BA
:100A6000039B034403935E4B1B686BB1217C59B11C
:100A70000398033020F00300002D039018BF0020DE
:100A80009847039B03440393564BD3F80080B8F177
:100A9000000F11D0617C79B10398237D009303305E
:100AA00020F00300002DE37C0390A27C18BF0020FF
:100AB000C047039B03440393FB697BB1A17969B1F0
:100AC0000398A27D033020F00300002D039018BF8F
:100AD000002000F031FF039B0344039394F82100AE
:100AE00080B1039AE37E217E0332194422F007028B
:100AF00042F004022B46C9B2039200F05DFF039B53
:100B00000344039394F8221000295AD0039FA28C27
:100B10000737002D27F007070CBF38460020039742
:100B200019F046FB039B034403931DB9A18C38467F
:100B300013F070FC217F002945D094F82030002B61
:100B400041D00398E28B073020F00700002D02F11E
:100B50002402039092B218BF002019F029FB039FD2
:100B6000A37E217E3A180332194422F0070242F094
:100B700004022B4694F820000392C9B200F00EFF45
:100B8000039B0344039335B9E28B217F083292B271
:100B9000384613F059FCE36A23B1039B05B9E362BD
:100BA000283303930398801B05B0BDE8F083A37A34
:100BB000627A217AE07919F0CDFA09F101098044CD
:100BC000E7E60F46B1E7002DE5D12A46294628463B
:100BD000DFE700BF38120020540000209000002002
:100BE00098000020940000208FB572B6194B1D6B41
:100BF000E5B9BFF34F8F1849184BCA6802F4E06299
:100C00001343CB60BFF34F8F00BFFDE7B4FBF6F497
:100C1000DAB20133002CF9D102F110036B440A2639
:100C200003F80C4C32B901A8A847E2E704460023B8
:100C30000A26EDE7531E04AC54FA83F4DAB2C3B2C9
:100C4000B3FBF6F706FB1733303304F80C3CB0FB6C
:100C5000F6F0E7E73812002000ED00E00400FA05A6
:100C60001FB5164CA37A8DF80930637A8DF80830D9
:100C7000237AADF80C3002A8E379ADF80A300AF017
:100C8000B5FB18B1DB210320FFF7AEFF012301A85C
:100C90008DF804301AF0D3FE08B1DF21F3E7207D90
:100CA0000AF008FC08B1E221EDE7E07C0AF0FCFB69
:100CB00008B1E321E7E704B010BD00BF38120020FF
:100CC00038B50546002840D017F0CEFC10B94FF0DB
:100CD000FF3038BD14F0CCFAB0F5FA7FF7D81D4CD0
:100CE0001D482563002500F0A3FA29463C221B4835
:100CF000657018F067F826222946A01C257084F834
:100D00002850E56218F05EF81B22E27140F21B32B7
:100D1000228140F2023240F2011362811F2263807D
:100D2000A28101234FF402722371E281A37544F67C
:100D30000112FB236282A384EFF3108472B600F0E9
:100D40004BFE2CB962B62046C3E76FF01500C0E732
:100D50002846BEE738120020610C00005400002035
:100D600010B5002840F0A380544C6378022B00F0AB
:100D70009B80A1B1002A6CD00139142900F2978020
:100D8000DFE801F00B181B2B535B74315E616F378A
:100D90003D4A4F797C898C8F81001378A3700121A3
:100DA0000020FFF7E5FDB0F5803F80F2838001234E
:100DB000637010BD1378E370F1E79378002B48D08F
:100DC000D378002B45D013781A2B42D953781A2B9D
:100DD0003FD91368C4F80730E1E71378627993428A
:100DE00037D32371DBE713782279934231D86371CB
:100DF000D5E71378227993422BD86374CFE7137821
:100E00003BB35378013BDBB2F82B22D813886382C3
:100E10002B4B92789A70C2E71078607511F0A6F9A2
:100E2000BDE71378ABB1A375B9E71378254A5268CB
:100E30000AB1012B0DD9E372B1E71388A381AEE7A4
:100E40001378A371ABE71F491378C96921B9012B46
:100E500004D86FF01500ACE7002BFAD01378E373D9
:100E60009DE71378082BF4D8237498E71388FF2B99
:100E7000EFD8A37393E71378E37590E713780E2BFD
:100E8000E7D823768BE713680F49E36153684B601B
:100E900013890B8183E71378637680E71378E37611
:100EA0007DE71378A3767AE74FF0FF3081E76FF0A4
:100EB0002C007EE76FF00B007BE700BF38120020AC
:100EC0004A120020540000205412002070B50D4634
:100ED0000646E8B1E1B111F0070419D100F0DCF8E1
:100EE000C8B1304617F034FD0C4E214686F8340068
:100EF0002846FFF73DFD1DF0B0FD96F83400F16A7D
:100F00000AF08CFBFFF7ACFE02237370204670BD25
:100F10006FF01500FBE74FF0FF30F8E738120020C4
:100F200010B5074C6378022B05D10AF093FB94F8B7
:100F3000340017F029FD19F084FA0020607010BD0C
:100F40003812002050B1074B03F1140253F8041B70
:100F500040F8041B9342F9D1002070476FF0150050
:100F6000704700BF7BBF040010B5064B5C7834B9F6
:100F70000AF002FB044B054ADA60204610BD4FF030
:100F8000FF30FBE738120020540000203908000031
:100F900010B5064B5C7834B90AF002FB044B054AE5
:100FA0009A60204610BD4FF0FF30FBE7381200205A
:100FB000540000206D08000038B5094D6C785CB90C
:100FC0000AF010FB074B084A5A60084A1A600123CE
:100FD00085F82830204638BD4FF0FF30FBE700BFD2
:100FE0003812002054000020A1080000E108000091
:100FF00010B5054B5C781CB90AF070FA204610BD9C
:101000004FF0FF30FBE700BF3812002010B5054B52
:101010005C781CB90AF054FA204610BD4FF0FF303E
:10102000FBE700BF3812002010B5054B5C781CB9F7
:101030001AF04EFD204610BD4FF0FF30FBE700BF19
:101040003812002010B5054B5C781CB91AF043FD2E
:10105000204610BD4FF0FF30FBE700BF38120020E4
:1010600010B5054B5C781CB91AF037FD204610BD51
:101070004FF0FF30FBE700BF38120020024B026840
:101080001A600020704700BF70120020014B1B68DF
:10109000184700BF70120020024B1868003818BFB4
:1010A000012070477012002073B52E4D031D0446B9
:1010B0002B6028460BF0A0FA0228064606D12949E3
:1010C000204618F03FF9304602B070BD042842D1E6
:1010D0002B78092B0AD0252B1ED02946204618F044
:1010E00096F9B0F5817F2DD3722112E005213E20C3
:1010F00018F0FBF80028F0D1EB782A7901A943EA2F
:1011000002236846ADF8003018F0B2FD0028D0D0B8
:1011100053210820FFF768FD1A213E2018F0E5F85A
:101120000028DAD16B68C3F30F23ADF804306946A9
:10113000112301A88DF8063018F0C4FD0028B8D09E
:101140006521E6E70028B4D0A178207818F0CDF822
:101150000028B8D1ADE70828B5D10249204618F0DB
:1011600020F9B0E774120020074B4FF0FF3141F631
:10117000FF72C3E9001205490022C1E900221F21C4
:10118000C3E90212704700BF00000020781300205E
:101190003F280CD801380B4BC0F3421200F01F005F
:1011A00053F8223023FA00F000F001007047FF28C6
:1011B00006D04038C0F34212034B00F01F00EFE7A7
:1011C0000120704700000020781300200146074BE3
:1011D000006849681A4603C240F48C221A6041F044
:1011E000107242F4FF625A60704700BF0000002096
:1011F0000246024B0068516803C370477813002011
:101200000246024B0068516803C370470800002083
:101210000138064BC0F3421203EB820300F01F00BB
:101220009B6823FA00F000F00100704700000020E6
:10123000014B1860704700BF8013002010B5FFF706
:1012400093FF19F061FD034B1B68044603B19847F7
:10125000204610BD801300200B880288F0B5C3F330
:101260000E049EB204F11803C57CC35A05352A4406
:101270002B4497B213FA82F3013B4288B3FBF7F396
:1012800013FB07439BB29A42044A93BF22EA060328
:10129000324013439BB20B80F0BD00BF0080FFFFC4
:1012A00010B5114B00EB41041A786389B3FBF2F3DC
:1012B00003FB0223013A1A44B2F5706F027928BF8A
:1012C00000231A448378B2FBF3F0194403FB102087
:1012D000091AB1FBF3F003FB101313446FEA434305
:1012E0006FEA5343638110BD8413002010B5124B85
:1012F000E0B15A78022A04D040F22B111720FFF7F0
:1013000073FC03225A70026812F0070102D04FF4F6
:101310009871F3E75C685A60224402609A60BDE805
:1013200010403C2203F10C0017F04CBD01225A7012
:10133000C3E9010010BD00BF841300202DE9F04176
:10134000254E96F801E00EF0FD0CBCF1010F04D023
:1013500040F245111720FFF747FC91F80680B8F1DD
:10136000080F02D940F24711F4E7CF7997B3454609
:10137000022D726838BF02257B1D5C0002EB43031F
:101380006A1E13446D422B408D884544013DC8F1CF
:1013900000022A404FF6FE75AA4202D94FF4A97105
:1013A000D8E7BEF1030F12D106EB80001C1BC56805
:1013B00015B140F25711CDE7C460A770228084F8C0
:1013C00003C0087A09682071080CE080218107FBBE
:1013D00002337360BDE8F081841300202DE9F047EB
:1013E000364C6378012B65D0032B04D040F2671193
:1013F0001720FFF7F9FBD4E901329A4202D04FF4EB
:10140000B571F5E72546002305F80C3B1E460E2274
:10141000994655F82200013A58B190F80480817835
:10142000B8F1FF0F2FD180F804908E423CBFCEB2AE
:101430000123511CEDD103B126700E2640F6FF6941
:1014400055F826709FBB013EFAD20423637000203A
:10145000BDE8F08755F82CE0BEF1000F06D09EF8ED
:1014600004A0C24504BF9EF802E077440CF1FF3CA3
:10147000BCF1000FEEDA3944FF2907D903B1267019
:101480004FF48371B4E794460027F1E70771CCE786
:1014900007EB41033846A3F80A90FFF701FF08F174
:1014A0000108BB785FFA88F18B42F1D8CBE74FF0A7
:1014B0000008F6E7022360686370C9E78413002020
:1014C000034B03EB8003D86800B18078704700BFFE
:1014D00084130020F8B54FF6FF730380184B03EB1D
:1014E00081030546D868B8B186780379B3FBF6F274
:1014F00006FB1233DBB219460A1D00EB4202B2F9B9
:1015000002705488002F09DB0131B1FBF6F206FBB3
:101510001211C9B28B42EFD10020F8BDFF29FBD0D8
:10152000C4F30E03C4782B8024B94FF4D97117206B
:10153000FFF75AFB5380BDE8F84018F0EABD00BF42
:10154000841300201D4B03EB810370B5DC68054656
:1015500044B3030404D54FF4E0711720FFF744FBB4
:101560000146204618F0B7FDFF28014604D020466A
:10157000BDE8704018F0CDBDA078B5FBF0F300FBDE
:101580001353DBB219460A1D04EB4206B6F902609A
:10159000002E09DB0131B1FBF0F200FB1211C9B2E0
:1015A0008B42F0D1002070BDFF29FBD08B4204EBB1
:1015B00042021CBF0023E3705580D8E7841300204B
:1015C000094B03EB810310B5DC680146204618F097
:1015D00082FDFF28014604D02046BDE8104018F0E7
:1015E00098BD002010BD00BF84130020F8B5104B3B
:1015F00003EB81030746DC680146204618F06BFDCB
:10160000FF28054611D0E688238953EA064606D00E
:101610000146204618F07DFD01463846B047204679
:101620002946FFF73DFE0020F8BD0320FCE700BF80
:101630008413002038B50E4B827903EB82030446F5
:10164000D86808B9022038BD8278E1799142F9D290
:101650004B1CE37100EB41035D89B3F90A30002BA9
:10166000F3DBA58018F055FD20600020EBE700BFFC
:101670008413002070B5044610F003000E4603D01A
:1016800049211820FFF7B0FA18F0C9FC054624B12B
:1016900003483146046018F0C2FC284670BD00BF04
:1016A000CC1300202DE9F04F1E4C85B092462268E5
:1016B000BDF83CB098468146BDF838300D461AB9A1
:1016C0005B211820FFF790FA1A460A21504603932F
:1016D00018F050FB5A4606460921404618F04AFBCE
:1016E00031180746206818F0C5FC039BC9F80000B4
:1016F00018B9286005B0BDE8F08F84192C60D9F8BE
:1017000000000093524631460A2318F0E5FA286893
:10171000CDF838B009234246394605B0BDE8F04F50
:1017200018F0DABACC13002070B50E46044618F053
:101730002AFB0546304618F026FB044B2A182146A2
:101740001868BDE8704018F0BFBC00BFCC13002083
:10175000014B186818F081BCCC130020F8B5114477
:101760001D4EC9B210F00305317003D04D21092080
:10177000FFF73AFA1F2B19D89B009BB2033323F0D3
:1017800003039BB208B17060338101EB810476687A
:10179000E2004FF0010C00EBC404EFB2B94212D8E2
:1017A000D01D03FB010020F00700F8BDFF2B4FEA1E
:1017B000430204D9FF339342DFDB93B2DEE77C2A96
:1017C000FBDC7C23DAE710B186F800C074600135D9
:1017D00028361C44E1E700BFD013002038B5144A76
:1017E000147853680021C8B2844203D8A821092084
:1017F000FFF7FAF91846013105782833002DF2D0A9
:101800000021817001241289447044688161C161A2
:10181000920800F12001051D21F8022B994245F89C
:10182000044B1444F8D100234361037038BD00BF5A
:10183000D01300200A4B1B89B3F5FF7F4FEA9300BA
:1018400006D25A089B1A9BB2984238BF1846704776
:10185000B3F5EE6F01D8FF22F4E740F27263F3E7CD
:10186000D01300202DE9F8434B7880460C4602F057
:10187000040602F0FB07D3B1DFB12E4BD4F804907D
:101880001D89B7BB01236370AD08A761E76104F14F
:1018900020034A46211D04F1280023F8025B9842E8
:1018A00041F8042B2A44F8D10023636101E0002FA2
:1018B000E3D0FF23A370002E18BF0226A3191B7DBF
:1018C000032B03D1022F1CBF0136F6B2A31901224C
:1018D0001A7506F10C0204EB8606002324F8123078
:1018E0007268A370C8F80020A8F804304046BDE82C
:1018F000F883002114226170A01817F063FAB5F57F
:10190000FF7F0FD26B08ED1AADB209EB0502C4F8E8
:1019100004902584A2606384C4F80C90A58422619D
:10192000E384C6E7B5F5EE6F4FF0FF03EBD940F265
:101930007265EAE7D01300202DE9F74305460C460F
:10194000F7200521904618F015FA064685B115F0E6
:10195000030703D08F211920FFF746F9DFF83890ED
:10196000C9F81050A9F81400A5B2BBB29D4204D822
:1019700006FB04F003B0BDE8F083B9F814C0D9F851
:101980001000CDF8008007FB0C000523F72231463C
:1019900018F0A2F90137E8E7E413002007B5CDE914
:1019A00000230B4603490246081D18F024FD03B02E
:1019B0005DF804FBFC13002013B5064CCDE90023B1
:1019C0000B46024604F1080104F10C0018F013FD67
:1019D00002B010BDFC130020134B012200214FF078
:1019E000FF309A60C3F80012C3F80803C3F800156B
:1019F000C3F804259A60C3F80803C3F80015C3F8B8
:101A000004250A490A4A03F580334FF40040C3F81D
:101A10000825C1F88000BFF34F8FBFF36F8FC1F867
:101A20008001C3F80825704700F0004000E100E0A5
:101A30000000F63F8C46382300B50CF8033B054BFD
:101A40008E4607CBCEF80300CCF80410CCF8082063
:101A50005DF804FB1C14002070B5234DE96AAC6AE4
:101A60000B7803F00303032B04F1A8041AD16B8E47
:101A70002A8E0120034342F400626B8620756B6B53
:101A80002A869847E96A237F013B18BF0123237701
:101A90004B7833B1D4E92232013342F10002C4E978
:101AA000223270BD002BEED04B78002BEBD02A8E6B
:101AB00042F400622A86AA6B002AF2D0FB2B08D8D7
:101AC00095F83C3063B16B6B0021BDE8704020207D
:101AD000184795F83D3043F0100385F83D3070BD50
:101AE00001230370CFE700BF1014002010B5174C7E
:101AF00011F088FA10F038FD636B208E00219847B2
:101B0000237E73B9A36A93F89E30022B1AD0236CFC
:101B100094F83D1094F83E009847002384F8443030
:101B200010BD94E8070004F10C0383E8070008499E
:101B3000022204F119001BF05DF9A36A93F89E30AC
:101B4000022BE4D103480BF049FDE0E7101400201C
:101B5000351A000034140020034B93F8443003B9C5
:101B60007047FFF7C3BF00BF1014002038B5234DE6
:101B700095F8243004460BB101280ED0012913D862
:101B8000EB6C2046984778B195F83D3063B995F8ED
:101B9000240058B164B1002038BD6B8E1B07EDD511
:101BA000AB6CDB78022BE9D1012038BD012CF3D1DD
:101BB00095F85030DC06C3F300110BD50023AA6B57
:101BC0007AB1A8B16A8E920712D5AB6CDB78022B82
:101BD000EAD1E0E76B6D1B78C3F30013C3F1010397
:101BE000EDE7B5F85820002AEBD00029DCD0E8E773
:101BF000002BD9D16A8E002ACDD0D5E71014002051
:101C000008B5094B93F84420022A07D1DA7A42F04A
:101C10000102DA72BDE80840FFF768BF4FF40F71A8
:101C20002720FEF7E1FF00BF10140020F8B5254C77
:101C3000A66A636DE36296F8CC30054606F1A80704
:101C400094F85A000BB10430C0B296F87D100DB96B
:101C5000FF282ED010F030FF97F824301BB3E06D32
:101C600011F0F6FD94F82430E16DE06A003B18BFF6
:101C7000012384F87830D7E92223C4E91C2310F02B
:101C800017FC3DB996F87D0010F00C0018BF282015
:101C900011F048FE96F87C10002011F0ABFE0223F4
:101CA00084F84430F8BDE06A11F0D2FD10F05CFC1D
:101CB000E7E796F87C209142D0D010F0FDFE97F82F
:101CC0002430CBE71014002070B57F4CA56A82B099
:101CD00095F8CC20002305F1A8068DF8053094F87E
:101CE0005A300AB10433DBB210B9FF2B00F0B280D6
:101CF00095F87C10FF2010F0DFFEB37E032B00F27E
:101D0000DE80DFE803F0021D807094F8BA30ADF891
:101D100006306E48A5F86C3009F0BAFE002840F095
:101D2000A180D4F8BC000DF105020DF1060118F0F8
:101D30004CF8A06420B196F86130002B00F0A98027
:101D40006348A064F37EDB0003F00802037803F02D
:101D5000F3031343327F920002F00402134303F0B3
:101D6000EF0203F00303032B027002D1C378022BAE
:101D700012D0D4F8BC0018F093F848B9A06C0278DF
:101D800002F00303032B07D009F0A8FE002879D145
:101D9000A06C027842F01002027096F8233013B162
:101DA0004378002B43D111F053FD10F0DDFBA66CFE
:101DB0000AF092FD20B1337803F00303032B64D0C3
:101DC00095F87D10012011F015FEA36C414A18888A
:101DD0009978A4F85000012384F8C030917084F8F9
:101DE000443002B070BD394809F052FE002861D07D
:101DF000A06CC3781B2BA5D1012105F1100010F0B8
:101E000091FEA06C9EE7B5F86C30D4F8BC00ADF83C
:101E100006300DF105020DF1060117F0D6FFA064A2
:101E200000288FD140F2D5212720FEF7DDFEE06D9E
:101E300011F00EFD94F82410E06DD6E92023B1FADC
:101E400081F67609A16C84F87860C4E91C2310F04F
:101E50002FFBACE795F87D3095F87C108B427FF432
:101E600049AF4AE7638EA16C626B43F08003802028
:101E700063869047A06C01217175C3781B2B7FF49A
:101E800061AFBAE7A06C027886E7012013F090F901
:101E900096E79DF805302BB1BDF806101AF065FFE6
:101EA000A06C4FE703808370A06C01211AF047FEFD
:101EB000A06CF1E740F2DE212720FEF795FE40F20C
:101EC000EB212720FEF790FE10140020581400206C
:101ED00098140020601400202DE9F041434C94F840
:101EE0004420A56A012A82B006460F4605F1A805DE
:101EF0005FFA82F874D12B7D6BB1638E002143F0C1
:101F0000040363862975636B0420984794F8243092
:101F10000BB185F81680A16C0A7802F00302032A3F
:101F200036D04B78EBB10223AB7695F82430F3B181
:101F3000A36A93F87D10D5E92223C4E91C2394F801
:101F4000243094F85A20003B18BF0123013984F84B
:101F5000783007293FD8DFE801F03B133E113E3EC1
:101F60003E380123AB7695F82430002BE0D106B93A
:101F700007BB02B0BDE8F041FFF7B8BD4FF0030862
:101F8000002300931A494346012010F019FAEEE7A6
:101F9000AB7E63B9638E43F0020363860220636BFA
:101FA0009847A16C0B7803F00303032BB9D10323EB
:101FB000AB76BAE731463046FFF7D8FD0028D8D1D6
:101FC00002B0BDE8F041FFF731BE4FF00208D7E79D
:101FD0004FF00008D4E740F2B2310620FEF704FECD
:101FE00040F275412720FEF7FFFD00BF10140020CE
:101FF0007014002070B50C4B0C4C0D4A1A6094F80C
:10200000443063B906460D4603F0FF02012104F196
:10201000880022761AF093FD6665E56570BDDE21C5
:102020002720FEF7E1FD00BF9C00002010140020D7
:10203000EC280000044A92F8443003F0FF000BB98A
:10204000107670470C20704710140020024B0122BC
:1020500083F83C20704700BF101400202DE9F043A6
:10206000BA4C85B002AD85E8030094F844100C9892
:10207000002940F0D481002A00F0D181002B00F02B
:10208000CE81002800F0CB8101F0FF06206495E8A6
:102090000300E36404F1240383E80300A56A626398
:1020A00084F83C6084F83D6084F8C16084F83E6048
:1020B00084F8C0606686268610F094FD10F054FA0D
:1020C00095F9800010F0B2FE05F1A807A86B11F099
:1020D000A3FB286A10F0B0FE97F8340010F0B6FEAB
:1020E00094F82430002B6AD0042016F021FFEA690E
:1020F00041F64B539A4294BF4D20962010F07AFC43
:10210000A36A93F8F032002B40F01D8195F87D1002
:10211000012011F089F8002864D08D4B186811F067
:1021200081FB6B69C4F8BC30AB69C4F8C43095F866
:102130008B3023B9D5F88410002940F0C380D7F83C
:102140009000D7F89410D7F89820D7F89C30DFF893
:1021500004C2ACE80F00D7F8A030C4F87930D7F843
:10216000A430CCF80D30A36A94F8241093F8C6205C
:10217000A2F12600002938D1012803D993F8C7001D
:10218000262838D193F8322393F87C80002A40D057
:10219000B8F1080F3DD0B8F1040F00F02581082AEE
:1021A00000F02281042A00F01F81B8F1010F30D025
:1021B000012A14BF4FF002084FF0010829E0032064
:1021C00016F0B6FEEA6941F64B539A4294BF4D2091
:1021D000962010F00FFC95F87C10002011F024F8E8
:1021E00000289AD105B0BDE8F08301287BD993F887
:1021F000C700262877D0213A012A40F2CB80242834
:1022000000F0E68093F87C80B8F1040F08BF4FF02F
:10221000080805F14409414648461AF0A8FE41461F
:102220001AF0D9F8B5F8503095F87D10024693426F
:1022300028BF1346484684F8BA301AF05EFE95F877
:102240007D1097F82490B5F85880082908BF04211C
:102250001AF0C1F8B9F1000F01D1043080B2404545
:1022600028BF40465FFA80F884F8C8800AF034FB43
:1022700020B1B8F12B0F38BF4FF02B0894F8241081
:1022800084F85A80002957D197F82330002B3AD090
:10229000012384F87830D7E92023C4E91C2395F87A
:1022A0007C30E86941F64B52013B904294BF0420D8
:1022B0000020072B00F29B80DFE803F01E9E991D93
:1022C000999999A0B7F84E203B8B93427FF437AF92
:1022D000B5F888201344A7F84E3095F88A000122FB
:1022E00012F04AFF2BE793F8CE2393F87C80002A64
:1022F0007FF44EAF8DE7032100220B460092154973
:10230000FB2210F05DF80120FFF7DEFC124BD3F842
:10231000503523F00803032B00F086800023C4E926
:102320000033A3602A88398B97F83430618022808B
:10233000237105B0BDE8F08397F8243073B901200C
:10234000FFF774FCE2E710F03BFCDFE6101400201E
:102350009C0000207014002000100040D7E92201EA
:1023600095F87D300122013BC4E91C0184F87820F6
:10237000072B3CD8DFE803F005443B043B3B3B46DE
:1023800003260021009133462A494246012010F0DD
:1023900017F8D4E724281BD000293FF433AF93F873
:1023A0006E2193F87C8050071ED412F001032BD1CC
:1023B00093077FF52EAFB8F1080F3FF42AAFB8F1BD
:1023C000040F11D0B8F1010F18BF4FF0020820E739
:1023D00000293FF417AF93F8751093F86E2193F826
:1023E0007C800A405107E0D54FF0080811E740F221
:1023F000B2310620FEF7F8FB01217DE702217BE7E1
:102400000126BEE70226BCE7B8F1080F3FF401AF92
:10241000B8F1040F14BF98464FF00808F9E640F2EF
:102420004F112720FEF7E0FB40F2F9112720FEF7BD
:10243000DBFB00BF7014002010B5194C94F8443039
:10244000F3B194F8243093B194F84430022B21D1A5
:10245000A36AD3F8080311F033FAA16A91F88B301C
:1024600003F0FF0213B9D1F8843063B910BD94F8BA
:102470004430012BF1D040F20E212720FEF7B4FBAF
:10248000FFF734FBE9E791F88A00BDE810401146F8
:1024900012F072BE40F212212720FEF7A5FB00BF0A
:1024A00010140020FFF722BB014B1876704700BFC5
:1024B00010140020014B93F8C00070471014002046
:1024C000024B188EC0F38020704700BF101400200C
:1024D000014B93F8C1007047101400202DE9F04122
:1024E0001E4FBC6A820782B005460E4604F1A8045E
:1024F00011D4EB070CD5D4E92232217F013342F10C
:1025000000020129C4E922320CBF002301232377F2
:1025100002B0BDE8F081BB6BDBB1B7F85820F96AB7
:102520001846033291F8018016F0D4FB0DF1020237
:1025300001A9F862D7F8C40017F067FD019817F0F9
:102540004EFD012230604146D7F8C40017F0F3FC7D
:10255000CFE740F266412720FEF746FB101400202B
:102560002DE9F047B24C86B00023CDE904338DF855
:102570000F3094F84430A56A022B06460F4605F149
:10258000A8055FFA83F840F0A281238E13F0400182
:1025900006D1636B40209847238E43F04003238687
:1025A000002E5AD095F82430002B40F01881D4F832
:1025B0002CA09AF8011089B2A4F85810002940F014
:1025C00025810023A3639AF80000238EE97EC0F3DF
:1025D000800243F480739142238600F0CC80A26A8B
:1025E00094F8241002F1A80999F81A20EAB1022AF5
:1025F00000F05381002389F81A3021B199F8162090
:10260000002A40F03F8199F81530002B40F01681E8
:1026100099F81B30D4F82CA0012B0CBF0023012308
:1026200089F81B309AF80000238E43F480622286DA
:102630002A7FC0F3C0039A424FF0000900F0A28045
:102640000AF04AF9C0B19AF8003003F00303032BF3
:1026500012D1012012F0ACFD0EE095F82420002AE2
:1026600040F0B98043F40073238694F8C1300133FD
:1026700084F8C1304FF0000995F823305BB394F82B
:102680002430A26AB3FA83F3D06992F87C105B0914
:1026900084F8783041F64B53984294BF04200020D0
:1026A000D5E920230139C4E91C23072900F2E2807F
:1026B000DFE811F08E000800E0008B00E000E00091
:1026C000E0000A004FF001080022009259494346F9
:1026D000FB220FF075FE47B994F8C1100120FFF7F7
:1026E00045FA0746002800F0998011F0F1F901271A
:1026F0009DF80F307BBBB9F1000F08D094F824305F
:10270000002B59D1B4F809300133A4F809303EB395
:10271000B4F8053000220133A4F8053084F8C12054
:1027200045480AF039FF049840B117F058FCA16AF7
:1027300000234372072201301AF04AFB059B33B194
:10274000A16A00221A720C2205981AF041FB6FB997
:1027500006B0BDE8F08705A90220FFF7BFFECAE773
:10276000B4F807300133A4F80730D9E7FFF7BEF912
:1027700006B0BDE8F0872A7FC0F3C0039A42B14695
:102780007FF45EAF0AF0A8F800284AD0D4F82CA055
:102790009AF8003003F00303013B012B41D89AF86B
:1027A000012094F8C8309A423BD994F83D3043F068
:1027B000100384F83D3043E7B4F80530B4F807104F
:1027C0002A8B0B431343A2D09CE74FF003087BE70F
:1027D0004FF0000878E70FF031FF238E42E70FF04B
:1027E000F3FE0FF0D5FED4F82CA09AF801100028C3
:1027F0007FF4E1AE002942D09AF800302A7FC3F37B
:10280000C0039A425DD089B2A4F85810D4F8C4002D
:1028100017F067FBD4F82CA0A063D4E6FFF754FAB6
:1028200066E70DF10F00FFF717F9D4F82CA007E7C2
:102830001014002070140020341400204FF0000AFF
:1028400089F815A009F034F900284AD0638E43F0C6
:10285000080363865146636B08209847D9F8803097
:102860000133C9F88030D9F8843043F10003C9F846
:102870008430CDE640F2B2310620FEF7B5F9A4F877
:1028800058109EE689F816301946638E43F01003FF
:1028900063861020636B9847B5E6D4F8BC0004A9A2
:1028A00017F0B6FAC0B1D9F8803094F8241001338B
:1028B000C9F88030D9F8843043F10003C9F8843076
:1028C00098E6012384F83E30FFF710F940E74FF413
:1028D0009D612720FEF788F94FF479712720FEF7D4
:1028E00083F940F2FB312720FEF77EF9011C00003E
:1028F00061250000D91E0000591B0000F0B583B00F
:102900000023044601A8019311F0B0FD019B03F0E0
:102910000303002B0BBF182522250F2619260CBFF9
:1029200000270A2716F076FB38B120461BF0B3FCCF
:1029300070B905F1610003B0F0BD16F0C7FA0028C8
:102940000CBF3D46354620461BF0A5FC0028F0D0C4
:1029500020461BF086FC18B105F15A0003B0F0BD0B
:1029600020461BF082FC0028F6D105F15000E2E77A
:1029700008B54FF452710620FEF736F92DE9F047FD
:10298000002800F0DA800446082900F2CB80DFE856
:1029900001F091A92424A5C91F9CC5000146204629
:1029A0001BF0DCFBD4F83C3100F1F7059D4240F20E
:1029B000BD80E81A322838BF3220032115F0B4FA5E
:1029C000C4F83C51064620461BF086FC002E7AD007
:1029D0002046BDE8F0471BF083BCFFF78FFFB4F83B
:1029E0003231A4F840010022062B84F8382184F803
:1029F000432100F28C800133A4F8323104F59C7538
:102A0000284614F04BFB002800F09B8094F85831C6
:102A100003F0FF01002B72D1D4E954026FF00043A0
:102A20009A4208BFB0F1FF3F12D02046D4E9526766
:102A30001BF094FBD4F85031D4F854219B1B00F1C7
:102A4000F70062EB07021B1A62F10002002A53DB57
:102A500094F81001294614F037FC00287BD0D4F8F4
:102A60004851D4F82871D4F84C61D4F82C81AF4285
:102A700078EB060327D220461BF0BBFB50EA01038C
:102A800081468A461FD0E81B4A4666EB080153463A
:102A900016F062F8D4E94A3209FB01F100FB0A1191
:102AA000A9FB009013EB0903014441EB0201C4E9C7
:102AB0004A3108E00CF050FDD4F83C01E73815F03D
:102AC00089F9002842D0BDE8F08790F8100114F091
:102AD000B1FA002384F83031BDE8F087BDE8F04753
:102AE00011F00AB81BF0C5FB00283FF457AF204691
:102AF000BDE8F0471BF0F0BB20460CF035FD94F824
:102B0000100114F097FA002384F83031A7E7D4F8C5
:102B1000143173B1012384F842316FE7F221302080
:102B2000FEF762F8F6213020FEF75EF8C4F83C515B
:102B3000DDE7022384F8423160E7D2213020FEF73E
:102B400053F840F29F613020FEF74EF840F28121A9
:102B50003020FEF749F840F2A3613020FEF744F838
:102B60002DE9F04F04468BB00020029394F87D309D
:102B7000069017460E46059319F074F894F8F12262
:102B80000B2A00F28583B34B33F8125094F8C72018
:102B90000392284487F0010285B204922FB3B4F85F
:102BA00080A3B4F8C090A6EB0A0A0FFA8AFAA6EB43
:102BB0000909BAF1000F0FFA89F904F55678C0F245
:102BC000D581A54ADDF808B0127802F0FF07002A87
:102BD00040F0DD8194F83C33032B00F26A83DFE898
:102BE00013F03F010401A2003A0094F83C23032AA9
:102BF000D5D1039A0E2AD2D1B4F8CC23B242CED189
:102C0000B4F80E13B4F882230A44C4F83823D4F875
:102C10004423C4F83023E269C4F8342320460EF07C
:102C20002BF8D4F8D423E169914205D004F12800AF
:102C30001BF003FFD4F8D423E261D4F8D023E2637D
:102C4000B4F8CE23A4F84020D4F8D823626202223C
:102C500084F83C23A3E7E569029B05FB0AF2002BFD
:102C600040F0318294F85333002B00F0DC827A4B31
:102C70005868D4F84433EB1AA3F5AD75D4F878331B
:102C8000D71B854228BF05460697DF19D4F87C3349
:102C9000C4F8085343F10003C4F86C33002384F8EC
:102CA00058337423A4F86033C4F8687304F1440003
:102CB0001AF021F9D4E9DA230544C4E9DE23C4F883
:102CC0005C53A4F880630DF04BF920B1D4F85C3369
:102CD0001E33C4F85C33B4F8F812039A8E1B002339
:102CE00036B29E4284F86233C4BF022384F8623352
:102CF0000E2A029A00F06182002A40F0618294F864
:102D00003C33002B40F07D8294F88403414614F05C
:102D1000DBFA002800F0BE82049B84F850330020C8
:102D20000BB0BDE8F08FE36BD4F8340329461844A8
:102D300012F074FA2946C4F84003E069474D12F0D6
:102D40006DFAE26994F87D9041F64B539A4298BF30
:102D50000230C4F84403484611F05CFA00F55F40C5
:102D600019F00C0F00F14100A5FB003014BF282121
:102D7000002101EB9011803120461AF054F9B4F88B
:102D80000E33002B00F07681D4F83433E26BD4F8A4
:102D9000405313445B1B0693D4F83033D4F83823E4
:102DA00094F87DA002FB0355B4F8403030351AF09A
:102DB0000C0F03EB450540F05481504611F02AFA00
:102DC000264B00F52340A130A3FB00304FEA9019B9
:102DD000504611F017FA4D441F4B069A284458608C
:102DE0000123E56984F83C3343E7D4F84403E269FE
:102DF000D4F84033D4F83813B4F80E53121A0AFB3F
:102E000002F20692D4F8302394F87DA03033A9441E
:102E100002FB0133C943B4F84050894400FB093038
:102E20001AF00C0F05EB400540F02181504611F0DF
:102E3000F1F90A4B00F52340A130A3FB00304FEA23
:102E40009019504611F0DEF94D44034B069A284480
:102E5000586089E0C0540400DC140020D34D621097
:102E600094F87D1094F80603DFF828A319F0DDFA32
:102E70008146E06B2946484412F0D0F92946C4F84F
:102E80004003E06912F0CAF9E26941F64B539A42F5
:102E900098BF0230C4F8440307A908A810F020FE28
:102EA000079B0093D4E9DE01DDE9082315F0C0FAA1
:102EB00094F87D3005930546184611F0ABF9059B53
:102EC00000F55F4013F00C0F00F1410014BF282102
:102ED0000021AAFB003001EB9011803120461AF04E
:102EE000A2F8D4F88833E26B94F87D00069305923B
:102EF00011F090F94AF2A13B00EB0B03AAFB03315E
:102F0000069B059AD4F84003203B13441B1A4B44FC
:102F10005B1BA3EB9113069394F87D30B4F84090BB
:102F200000F1300513F00C0F4FEA450509F12209B5
:102F300040F09A801846059311F06CF98344AAFB7F
:102F40000B3A059B4FEA9A1A184611F05BF94D446B
:102F5000914B069A554428445860D4F88833D31AC4
:102F6000B3F5D87F40F29B81E56982E6002284F8C0
:102F70005323894AD4E9DC011278C4E9DE01CA4648
:102F80004FF0010B02F0FF07002A3FF423AE12F0CE
:102F9000EFF9074600283FF41DAEB4F82423012AB8
:102FA00040F2F58094F83C23022A00F0F08094F877
:102FB0005223002A40F0EB80E06941F64B57B842BB
:102FC00040F2438194F8F1220B2A00F26181734BA5
:102FD00033F8125094F83C3305F5C865012BADB2B7
:102FE00040F0378194F8CA30032B40F04681D4F882
:102FF0003403E76B0744294612F010F903463846BC
:10300000D4F83073C4F83033DB1BD4F83873294656
:1030100003FB07F712F002F9D4F84033C4F8400379
:10302000C01A07442946E06912F0F8F8E36941F64E
:103030004B529342B4F80E33D4F838234B446FEA22
:103040000202A3EB0A031344D4F8442398BF0230CE
:10305000C4F84403801A00FB0377012384F8523339
:10306000B8E54FF06509B3E64FF0650A6CE74FF03D
:103070006509E6E6029B002B3FF486AE94F87DB02E
:10308000D4F83423E36B584602EB030911F0C2F87D
:10309000D4F88C338246A9F1200958469944D4F8D3
:1030A00040B311F0AFF80AF5234AA9EB0B090AF176
:1030B000A10AA9EB0009A5FB0A35A9EB9515069510
:1030C000D4F8405368E6B4F80E33002B7FF4CAAD51
:1030D00084F85333D4F8441301FB1A2A94F8C62019
:1030E000CDF818A0262A5BD094F8C720262A57D0FE
:1030F000BBF1000F27D033BBD4F88CB3BBF1000F6A
:1031000000F0D28094F87D0010F00C0F40F09B800E
:1031100011F080F81F4DD4F88CB300F52340A13096
:10312000A5FB0035AD0994F87D00103511F06AF863
:10313000AAF1100A0AEB0B02551B2D1AB4F80E3334
:10314000D4F844130695059803EB090B01FB0BFB20
:103150000BF1300B10F00C0F4FEA4B0B61D111F05B
:1031600059F80C4D00F52340A130A5FB003085092E
:10317000059811F047F8084B054405EB0B00E5698D
:10318000586041F64B539D4250D9069A71E500278D
:1031900020E500BFD34D6210DC140020C0540400B1
:1031A000B4F8CC23B21A1204A2D4059894F8CF2311
:1031B000002A18BF104605909AE7002A3FF4A4ADF4
:1031C000B4F82423D2B1B4F8260394F8281300FBF2
:1031D00001118A4200F101007FF796AD002B3FF408
:1031E00093AD002384F86233A4F8260309F07AFB38
:1031F00000F00700013084F8280385E5A4F82623B1
:1032000082E5E169D4F844334046C91A19F0B2F8AE
:1032100080B200283FF478AD149BC3B11880012020
:103220007EE56525A4E7B4F80E3353E7234A284624
:1032300006AB594619F017F9214B84F85303069A47
:103240005868E56915E5752570E71746C2E4012061
:1032500066E5294611F0E2FFE369BB42B4F80E735C
:10326000D4F8443398BF02304F44A7EB0A07C4F8A0
:103270004403C01A00FB07F7EFE694F87D1094F8BA
:103280000603E76B19F0D1F80744D4F83403B2E62B
:10329000FFF76EFB40F2A3513020FDF7A5FC40F292
:1032A000F2413020FDF7A0FC40F244513020FDF700
:1032B0009BFC40F259513020FDF796FCE0140020B1
:1032C000DC1400202DE9F04385B0002800F05B817C
:1032D0000446082900F23D81DFE811F08900E90089
:1032E0000900090071003B0176007E0037011BF0E8
:1032F000E6FED4E9DC23801A61EB0301012871F1B9
:103300000003C0F24E816FF00102002382428B4124
:10331000C0F24281E3690BB1B0FBF3F394F8C7202C
:103320000E2A00F00B81B4F8C010B4F84E230B4401
:103330009BB2D11A090454BF531C01339BB2A4F8A9
:103340004E3394F85133B4F84E1323B9B4F8FC3229
:103350008B4200F00B81B4F8FC20B4F8C030B4F814
:10336000FA001344013BB4F882231B1A9EB2531C8B
:10337000721A1204A4F8823300F1B4800DF10E0524
:10338000002300951A462046FFF7EAFB002840F08C
:103390009380D4F884303BB3B4F8F620B4F84E33BD
:1033A0009B1A1BB2002B1FDDB4F888100B44013BA5
:1033B000B3FBF1F313FB0123A4F8F63014E005B0DE
:1033C000BDE8F04310F098BB012011F0F1FE05B00C
:1033D000BDE8F043FFF766B890F83C33042B40F0AB
:1033E000E580002380F83C3305B0BDE8F08390F819
:1033F00050330022C0F88C23002B00F08E80B0F8F0
:103400004E23B0F8C0309A4200F0B580D31AA0F82D
:10341000FE32A0F8C020D4E9DA232046C4E9DC2338
:103420000DF008FB94F80333002BDDD094F87D20D9
:10343000E569D4F84433DFF87C8112F00C0F14BF37
:103440004FF4F0794FF4DC799D4288BFED1A98F87B
:10345000083098BF0025002B7FD004F14400D4F839
:10346000087319F048FD0744022014F00DFDED1B10
:1034700025EAE575854228BF05460221284614F055
:1034800053FD00B92F444A463946204619F0B3FD92
:10349000E269D4F80833C8F80C00D01814F09AFC8C
:1034A0000028A1D140F2AA313020FDF79DFB05B0E4
:1034B000BDE8F0431BF0C3B8012868D1B4F84E133F
:1034C000B4F8F8228B1A13F4004FBDF80E301944EB
:1034D00089B2A6EB01032CD11BB2002BA4F84E132A
:1034E000BFF64EAF94F8CA303349002B0CBF3E23D1
:1034F000082384F8E93004F1E00019F075FC204657
:103500001BF09FF8002384F83C3394F8840313F0F5
:1035100091FD202384F8843366E7B0F84C33B0F88B
:10352000C010B0F84C23A0F8C0205B1AA0F8FE32FF
:1035300071E71B0416D4A4F84E1321E7B4F84E1318
:10354000013189B2A4F84E1305E7C6213020FDF7FA
:103550004BFBCA213020FDF747FB636C9D4228BF1F
:103560001D467AE7B31A1BB21146B6E7013189B29C
:10357000A4F84E13EFE6B0F8FC32A0F8C0309B1A66
:10358000A0F8FE3247E79C213020FDF72DFB4FF4D9
:10359000CC613020FDF728FB40F221613020FDF79F
:1035A00023FB4FF4C4613020FDF71EFBC021302007
:1035B000FDF71AFBDC140020D5CF00002DE9F04701
:1035C0000026054680F81861D0F814010127D5E9D6
:1035D000528982B080F806238A4685F830613946E0
:1035E00085F8317108F07AFDD5F81441C4E9DC8919
:1035F00095F8103184F88433C4E9DE89C4F888A3CF
:1036000084F83C63A4F88063334600963246314622
:103610002046FFF7A5FAC8B984F83C73C4F838030C
:10362000C4F83003A4F84E03A4F84C0384F8510303
:10363000B4F8C030A4F88203013BA4F8C0300FF006
:1036400091FD02B0BDE8F04713F022BB40F221210A
:103650003020FDF7C9FA00BFD0F81401704700BF51
:103660002DE9F04385B000230322CDE90033012684
:103670008DF806206846FDF7DDFF044620BB009D5F
:1036800095F83031002BF5D085F858610121284696
:103690001AF028FE95F83031002BEBD095F8100188
:1036A00014F01EF995F8100114F068FD95F810015A
:1036B00013F0C0FC00283CD085F830416846FDF787
:1036C000B9FF04460028DAD0DFF87C80012388F8AF
:1036D0001030002502264FF6FF771AE0029BE3B177
:1036E00093F88423202A18D01888B8421BD00221CE
:1036F000FDF766FF814608B390F8840314F03EFDA1
:1037000099F8840389F83C4313F094FC202389F84A
:103710008433CDE902558DF80E6002A8FDF78AFFCB
:1037200004460028DAD0002088F8100005B0BDE873
:10373000F08340F20D213020FDF756FA40F22911B6
:103740003020FDF751FA00BFDC140020054B0022A9
:10375000012142F210701A72588219701A74FFF720
:103760007FBF00BFDC14002090F83031002B40F008
:10377000A3802DE9F04104460F4601465648154600
:1037800003F0FF0813F02AFC202806466DD04146BE
:10379000502204F5887015F015FB012384F81061A0
:1037A000C4F8147184F8303137B109F0B3F800F07F
:1037B0000700013087F828032046FFF79FF800270D
:1037C0000223A4F84001A4F8423184F8387111F0C2
:1037D00055FDB4F840619D3606442046B6B21AF055
:1037E00048FD002844D018F03DFA00F5CD6189B2BB
:1037F000284611F013FD2844C4F83C011BF05FFC7F
:10380000301841F100010126C4F84801C4F84C11F8
:1038100084F81861E78420461AF041FD002843D05F
:10382000314620461AF09AFCA5F2F3452D1AC4F849
:103830001C514FF0FF326FF00043C4E9542394F859
:10384000100104F59C7113F03FFD00283ED0D4E92F
:10385000522300252046C4E94A23A4F832512946C0
:103860001AF040FD2846BDE8F0810C20BDE8F0814B
:10387000014620461AF072FC184FF730C4F83C019C
:10388000788A08B1E08CC8B906441BF018FC3618D9
:1038900041F10001C4E95261002DCAD0AE1941F1D5
:1038A0000001C4E95461CAE730461AF004FEF73D4E
:1038B0002D1AC4F81C51BCE70C20704709F02AF8F7
:1038C0007B8AB0FBF3F202FB1300DDE740F2EF115D
:1038D0003020FDF789F900BF7D290000DC140020AD
:1038E00090F830310BB90020704710B50121044623
:1038F00080F858111AF0F6FC94F830310BB900201A
:1039000010BD94F8100113F0EBFF94F8100114F0BF
:1039100035FC94F8100113F08DFB20B1002384F8DE
:103920003031002010BD40F20D213020FDF75CF950
:10393000014B1872704700BFDC14002090F858212A
:1039400082B910B502F0FF0490F8182112B90122D3
:10395000104610BDD0E947319942F9D90BF004FE69
:103960002246F5E700221046704700BF10B5044616
:103970000FF084F8074BDA68824208D3E16941F618
:103980004B52914203D9187C80F0010010BD0020F9
:1039900010BD00BFDC14002008B54FF4FF7119F012
:1039A00055FBB0F5296F28BF4FF4296080B208BDE0
:1039B00090F80333002B66D170B503F0FF0590F843
:1039C0003C33032B84B0044601D004B070BD1BF01F
:1039D00076FBD4E9DC23801A61EB0301012871F145
:1039E0000003F2DB6FF00103834275EB01034DDB53
:1039F000E369B4F8C020002B46D0B0FBF3F080B2EE
:103A0000531C184480B2A4F84C03B4F84C23B4F807
:103A1000FC329B1A1BB2002BD7DD94F8840313F001
:103A20005FFF0028D1D0FF2384F85133B4F8FC3075
:103A3000B4F8C050B4F8FA201D44013DAD1AB4F8F2
:103A40004C33ADB2EB1A1A04BFD40DF10E06B4F824
:103A50004C130096002389B201222046FFF780F81C
:103A60000028B2D0012816D1B4F84C33BDF80E208E
:103A700012FA83F39BB2A4F84C33B4F84C33EB1A2C
:103A80001B04E4D5A1E770471846B9E740F2D751C7
:103A90003020FDF7A9F84FF4C2613020FDF7A4F8FB
:103AA0002DE9F047044682B0052900F2C180DFE825
:103AB00001F03D1603131C23042384F83C330FF05C
:103AC00051FB13F0E5F8B4F8C020A4F84E2300230E
:103AD000A4F8823384F8513302B0BDE8F0870323A1
:103AE00080F83C3302B0BDE8F0870EF0C1FFC4F8A7
:103AF0008C0302B0BDE8F08790F87D50284610F0A6
:103B000089FB4E4900F55F4015F00C0F00F14100B4
:103B1000A1FB003014BF2821002101EB901180315E
:103B2000204602B0BDE8F04719F07DBAD0F88C33DA
:103B30009BB9434B1B7C03F0FF02002BBCD1B4F8B4
:103B4000FC12009201232046FFF70AF80028B6D0A5
:103B500040F2DA613020FDF747F890F85233002B3D
:103B6000E7D090F83C33032BE3D190F87D9018F028
:103B700079F894F8F1320B2B58D8324AD4F88C5398
:103B800032F81330C61803F5C86348469FB210F0E8
:103B900039FB19F00C0FA5EB0008B6B248463CD132
:103BA00010F038FBDFF894A0D4F8085300F2E733A4
:103BB000AAFB03234846A8EB931810F023FB2D1A09
:103BC000484610F027FB00F52343A133AAFB03234B
:103BD0009B09EB1A5A08603B293206FB03F3B3FB3F
:103BE000F7F36033A2EB530141454FEA530302D888
:103BF0001344434501D211F0A7FDE069314611F0AD
:103C00000DFBE26941F64B539A4298BF0230002304
:103C1000C4F8440384F852338BE7D4F8085310F007
:103C2000F1FAA8F13C082D1A6523D2E7FEF7A0FEB1
:103C300040F26E713020FCF7D7FF00BFD34D621009
:103C4000DC140020C0540400012A70B5064609D0D7
:103C5000022A14460D461ED04AB14FF4F3613020BB
:103C6000FCF7C2FF0EF00AFFC6F8880370BD0EF025
:103C700005FF224601462846FFF7A0FC0F4995F8AC
:103C80001001324611F068FA0028EFD140F281713C
:103C90003020FCF7A9FFD0F8881301222846FFF74F
:103CA0008DFC064995F81001324611F055FA0028AE
:103CB000DCD140F292713020FCF796FFC532000053
:103CC000F8B5044651B1012962D1002380F81831BA
:103CD0000FF048FABDE8F84012F0DABFC58C002DAD
:103CE0004ED12046D4E94A761AF083FA401941F1C0
:103CF0000001C01946EB010602230022C4E9520666
:103D0000A4F8423184F838212046FEF7F7FDD4E9C3
:103D1000525694F85831A4F84001C4E94A5603F0C9
:103D2000FF017BB9D4E954026FF000439A4208BF07
:103D3000B0F1FF3F0FD194F8100104F59C7113F01E
:103D4000C3FA50B30023A4F832310FF00BFABDE8E8
:103D5000F84012F09DBF20461AF000FAD4F8503116
:103D6000D4F854215B1B00F1F70062EB06021B1A2A
:103D700062F10002002ADEDA20460BF0F5FBE1E7F3
:103D800008F0B0FDE58CB0FBF5F303FB1505A8E7E3
:103D90004FF4F5613020FCF727FF40F2FA61302044
:103DA000FCF722FF90F83001704700BF014B5882AA
:103DB000704700BFDC1400200B46062203F8032BDB
:103DC000B0F809C0C27AA1F803C09A70704700BF6A
:103DD00018230B70704700BF08B54FF42B713220C9
:103DE000FCF702FFF8B500284CD0437A46890F460D
:103DF00004466BB300213046FDF7E2FB0546002880
:103E000045D0008807F004FE28880021FDF7EEFB6E
:103E1000002841D13B46132203F8032B04F1290E5D
:103E200004F10902156850689168D2F80CC0C3F813
:103E30000CC0103272451D605860996003F1100388
:103E4000F0D112781A700023BB71637A8BB1F8BD80
:103E5000C36CD0F80E20C3F80320428AA3F80720D1
:103E6000427BC36C12F0FD0F14BF012200229A7036
:103E7000D0E707F033FC4B04E9D53046BDE8F84005
:103E800005F0D2BF40F2EA213220FCF7ADFE40F24D
:103E9000F6213220FCF7A8FE40F2FA213220FCF78E
:103EA000A3FE00BF044B1B680022A3F8B22083F8D6
:103EB000B42083F870207047F014002008B508F093
:103EC000F5F9034B18700FF09DF8032008BD00BFF3
:103ED0001000002008B508F0E9F9024B02461A70FC
:103EE000012008BD100000202DE9F04105461746CD
:103EF0001E46A1B1AB681BB12FB13846BDE8F081B9
:103F00000120BDE8F081002EF7D01849AA7C09688D
:103F1000BDE8F04191F84100423118F04FB9DFF8A7
:103F20004C80D8F8001091F8562091F89A0001F1D1
:103F30005703933118F042F9D8F8003093F88120F4
:103F4000082A03D093F88410914207D093F8523096
:103F5000012BCFD033B90028CCD1D2E793F852301F
:103F6000012BC7D90020BDE8F08100BFF01400206C
:103F700038B50D4D2C6894F8853063B900230121C4
:103F800084F87010A4F8B23084F8B4302046BDE84C
:103F9000384004F0C5BF0FF013FD0EF087F9002381
:103FA00084F885302C68E9E7F014002010B50D4C3A
:103FB000236893F85030032B0BD1606860B10FF089
:103FC00047FC00200FF0AEFC2368042283F8702029
:103FD00010BD02F019FFF1E740F2F2413220FCF788
:103FE00003FE00BFF014002038B5204D2B6893F875
:103FF0007020022A35D8027C83F88020C168596776
:104000001A44044692F8B52083F8B1204268DA6772
:10401000037A022B02D1637CCBB938BD0EF0E2FDEE
:104020000FF0CEFC0EF042F911480FF0FBFB1148E7
:104030000FF0F2FB10480EF0FFFE2B6893F868308B
:104040005BB9012014F074FF637C002BE5D0286875
:10405000BDE83840603018F0A7B8022014F068FFBF
:10406000D9E740F6D5013220FCF7BEFDF014002060
:104070004C01002055555500D6BE898E70B5414C77
:10408000236893F87020032A064626D093F8702000
:10409000042A22D093F85020032A4ED16568002DBF
:1040A00051D06EBB93F87020022A56D993F8702035
:1040B000082A57D893F87030A26803F180435269F8
:1040C000033B52F8233098470C2841D8A368DB689B
:1040D000BDE8704053F82030184793F85020032A69
:1040E000DCD002F091FE05466DB3236893F85020B2
:1040F000013A022AD5D941F246313220FCF774FD4B
:10410000284618F0E5FC18B9284618F0FCFCC0B1A8
:10411000236893F87020022A29D993F87020082A7E
:104120002AD893F87030A26803F180431269033BE8
:10413000284652F823309847C6E702F097FE054616
:10414000D2E72368AEE74FF49A513220FCF74CFDDA
:1041500041F25B313220FCF747FD41F2263132203B
:10416000FCF742FD41F227313220FCF73DFD41F2E0
:10417000C6213220FCF738FD41F2C7213220FCF77E
:1041800033FD00BFF014002038B5144C236893F8B9
:104190005030032B18D16568D5B12368FF2093F800
:1041A000B1100EF089FC28460FF052FB236893F8FB
:1041B000B10010F00C0018BF28200FF0B3FB2368EB
:1041C000072283F8702038BD02F050FE0546E3E771
:1041D00040F217513220FCF707FD00BFF014002019
:1041E000F0B5504C23680022DF6C5A72FA690E4613
:1041F00039885981054641F27071A2F57A7088427A
:1042000083B040F282804849A1FB0212C2F38F22A0
:104210001A84BA8C5A84FA8C9A844FF47F42DA84D6
:104220004FF6FF721A85002D65D00121304618F037
:1042300071FB3278D209236893F8861009B1002AFD
:1042400037D193F8820000210828596119833DD0A5
:1042500003F10E0203F10D0107F0CAFD00285CD046
:1042600023685A7B42F002025A7303F11A07002DA9
:104270003BD103F1930002683A608288BA8093F9D7
:104280005410D86C07F0E2FF20682849022218F089
:104290009FFD20682649C36C1C88A0F8334093F822
:1042A000CE3080F8353002222A3018F0A3FD03B05A
:1042B000F0BD427902F0C002402AC2D102685A61C0
:1042C000828893F882001A830828C1D193F89A0053
:1042D000D3F893105873C3F80E10B3F897005882B0
:1042E0000021C3F81A10D983C9E70021304618F01D
:1042F00011FB2368BFE76068694618F0BEF9636880
:104300001A786846C2F3801295E70A49A1FB0212A7
:10431000920902F5506292B27AE741F2913132206D
:10432000FCF762FCF01400205917B7D1E53D0000FE
:10433000B93D0000D34D621038B50F4D2C6894F88C
:1043400085307BB900206968A4F8B20084F8B40015
:1043500084F87000FFF744FF28680221BDE8384068
:1043600004F00EBE0FF02CFB0DF0A0FF002384F82C
:1043700085302C68E6E700BFF014002008B507F090
:1043800095FF034B187003F04FF8012008BD00BFE4
:1043900010000020034A1068022380F8703004F0F7
:1043A00051BC00BFF014002008B540F24331322068
:1043B000FCF71AFC30B504788DB004F00F0402A9A4
:1043C000224603F039FA0EF01DFE07F06FFF214B75
:1043D000042C187002D003200DB030BD1E49039A82
:1043E00009681478054691F893008442F3D1547813
:1043F00091F894008442EED1947891F8950084422B
:10440000E9D1D47891F896008442E4D1147991F8F6
:1044100097008442DFD1507991F898209042DAD108
:104420009DF8190091F89A209042D4D17F2D0ED09A
:104430007F221A7002A891F8993091F8A82091F87B
:104440008210009503F006F903200DB030BDFFF790
:10445000ABFF00BF10000020F01400202DE9F04752
:10446000044684B006290CD8DFE801F06822110B5D
:104470000B0B0400B74D2A6892F88B30002B40F0EC
:1044800083800EF0BFFD032004B0BDE8F0870EF07E
:10449000B9FDB04B1A6892F88B302BB192F85030BE
:1044A000013B012B40F2DE80032004B0BDE8F08721
:1044B000A84F837C396891F8865091F88BA0012B26
:1044C00085F001057ED0002691F85030032B00F0D6
:1044D000BF8091F88180B8F1080F40F0A88091F872
:1044E00041804FF000094046032B75D1636891F875
:1044F00057201E78964200F05081002691F88130B6
:10450000082B04D091F884209A4208BF0126B9F103
:10451000000F40F0A580002D40F0E080BAF1000FC0
:10452000AFD03B6893F85230012B03D0002BA8D1B9
:10453000002EA6D0002DA4D00A20A5E7854D2A681C
:1045400092F88B30002B9CD092F85030022B00F068
:10455000CC80012B00F05881032B40F06C81436824
:1045600092F857101878884200F0938092F85230F1
:10457000012BE1D092F88430082B82D092F8812070
:104580009A427FF47EAFD7E792F85030022B00F0CA
:10459000C680012B7FF475AF6F4991F900307F2BF6
:1045A00000F04781029392F89930019392F882309B
:1045B00000937F250D70FF234232062102F080FF19
:1045C000032061E783685E7906F0C006A6F1400625
:1045D000B6FA86F6760977E70EF014FDBAF1000F09
:1045E0003FF462AF3968A36891F84100A27C423180
:1045F00017F0E4FD18B9B9F1000F00F0AF80564D87
:1046000095F900307F2B00F014813A68029392F8FC
:104610009910019192F88210009120467F24434620
:10462000423201212C7002F04BFF03202CE7404660
:1046300007F094FB002818BF0546002E40F0D280FA
:10464000396891F8418091F85030B14640464BE7C7
:1046500091F84920002A3FF43CAF91F884803AE772
:1046600001255BE73C4991F900307F2B00F0E180A8
:10467000029392F89930019392F8823000937F254B
:1046800020460D70FF234232022102F019FF032061
:10469000FAE6587892F8581088427FF467AF987815
:1046A00092F8591088427FF461AFD87892F85A1086
:1046B00088427FF45BAF187992F85B1088427FF4F0
:1046C00055AF597992F85C3099427FF44FAF617CD5
:1046D00092F8563099427FF449AF2DE7A368A27C47
:1046E000423117F06BFD054618E71B4991F9003080
:1046F0007F2B00F09E80029392F89930019392F8FC
:10470000823000937F24FF2342320C70002102F09C
:10471000D7FE2B68012283F8A8200920B4E60E49B1
:1047200091F900307F2B00F08480029392F8993049
:10473000019392F8823000937F24FF2342320C7061
:10474000062102F0BDFE2B68002283F8A820092074
:104750009AE600BFF0140020100000203A6892F89A
:104760005130023B012B3FF69FAE002E3FF49CAE32
:10477000334991F900307F2B5BD0029392F8993046
:10478000019392F8823000937F250D70FE23423210
:104790002046012102F094FE86E65E7891F85820CA
:1047A00096427FF4AAAE9E7891F8592096427FF403
:1047B000A4AEDE7891F85A2096427FF49EAE1E7920
:1047C00091F85B2096427FF498AE5A7991F85C306C
:1047D0009A427FF492AE667C91F85630F31A5E42AC
:1047E0005E418BE6A168404607F0F2FB39688146DE
:1047F00091F8410091F850308046B9F1000F3FF434
:1048000073AE40F002086FE60D4991F900307F2B3E
:104810000FD0029392F89930019392F8823000936E
:104820007F250D70FF234232002102F049FE032054
:104830002AE6FFF7B9FD40F6F5413220FCF7D4F93E
:104840001000002030B5164B93F900407F2C85B046
:1048500024D07F221A70134B1A6892F87030032B01
:1048600015D092F87030062B0CBF0325012592F865
:10487000B130CDE9024592F88240019492F8994016
:104880000094423202F016FB18B905B030BD002585
:10489000EDE705B0BDE8304002F094BDFFF784FDC0
:1048A00010000020F014002010B5104A136893F88F
:1048B000701002290FD993F87010082910D893F8B6
:1048C0007030926803F180439268033BBDE810406A
:1048D00052F82330184741F23D413220FCF784F969
:1048E00041F23E413220FCF77FF900BFF014002076
:1048F000F8B5334C236893F8B42005465F2A93F843
:10490000B2009CBF51092F4AC0F3050700F03F00D9
:1049100094BF565C00260EF099FA236893F9540070
:1049200083F899700EF082FAFDB123683246596F10
:1049300001200EF0C3FD00283CD0236893F892308C
:10494000022B0CBF4020FF2031460EF0B5F8256841
:1049500095F85030032B10D195F8A8306768A3B1B3
:1049600038460EF075FF0120F8BD32467321012054
:104970000EF0A4FD0028E0D1F6E702F077FA2568F2
:1049800095F8A8300746002BEAD1781D07F076FA93
:10499000236885F8850093F88530002BE0D016F069
:1049A0000C0F14BF552450240DF062FC20460EF06D
:1049B000FBFFD5E740F2EB713220FCF715F900BFA1
:1049C000F0140020FC540400F8B53A4E336893F814
:1049D000B4205F2A9EBF5109374A575C5A6F05467B
:1049E00088BF00272AB10120FFF782FF00285BD093
:1049F0003368D86F0EF064FF346894F85030022B9F
:104A000031D0032B0AD0E5B140F20113A4F8A9304C
:104A1000002384F8B17084F88930F8BD94F892309E
:104A2000012BF0D117F00C0F2CD094F85530012B3E
:104A300014BF3946042100200EF0DCFF3468002D3D
:104A4000E2D194F89230022B14D0012B1CD0002B11
:104A5000DED102F099FE84F8A90002F093F984F8FF
:104A6000AA003468D4E794F89230022BDAD0002DF3
:104A7000CAD1EAE7002384F8B170A4F8A95084F8F9
:104A80008930F8BD3946D6E794F8B130A3F1020376
:104A9000B3FA83F35B094FF0000263F3070263F399
:104AA0000F22A4F8A920B3E740F2B4413220FCF76A
:104AB0009BF800BFF0140020FC54040038B50546F4
:104AC0000C4606F011FE420704D4A37803F0E0037D
:104AD000402B0DD006F008FE830704D4A37803F022
:104AE000E003202B04D0237803F03F03242B01D9CB
:104AF000002038BD0DF09EFF94F9003094F802C0FC
:104B00006278002B0CF01F03ACBF1E214FF496718E
:104B100042EA032301FB03F31A1AB2F5877FE7D3B6
:104B20009842E5D8054A23881068A0F8B23080F88A
:104B3000B4C02946BDE8384004F018B8F01400208D
:104B4000F0B5294E326892F88B3087B05BB392F89B
:104B5000A830044633B90378002B0CBF012302238D
:104B600082F8A83092F87030062BD8B230D00728DF
:104B700014BF012702271D4890F900507F2D31D026
:104B800092F8B130CDE9025792F88250019592F82F
:104B9000995000957F2505704232204602F08AF92F
:104BA00020B9022F16D1002007B0F0BD607810F0B8
:104BB000100512D0A1690220FFF780FF059048B1CF
:104BC0003368002283F892200EF01CFA0598EBE778
:104BD0000327D0E702F028FCE5E702F0F3FB2846C4
:104BE00007B0F0BDFFF7E0FBF0140020100000203C
:104BF00010B504468AB007F059FB2378174A03F032
:104C00000F03072B107002D001200AB010BD6946B7
:104C1000204602F0ABFE9DF8003000220292002BED
:104C2000F2D19DF80130DB07EED50D4C01992368D8
:104C30009DF8110093F89A20933317F0BFFA0028DB
:104C4000E2D0206801218E3016F0DBFFFF2168469C
:104C5000FFF776FF0028D7D00220D6E7100000200B
:104C6000F01400202DE9F04304468BB007F01EFB42
:104C70002378474A03F00F03082B107004D0012556
:104C800028460BB0BDE8F0836946204602F006FED8
:104C90009DF80050002DF2D19DF8013003F0030380
:104CA000032BECD13B4F3E6896F84930002B36D0B1
:104CB00096F8848096F88530002B33D196F89A20A8
:104CC00001999DF8110006F1930317F077FA002877
:104CD000D5D096F886203E6896F841904236002A54
:104CE00045D19DF81200029901282ED033464A463C
:104CF00017F064FA0028C2D0386801218E3016F00F
:104D000080FF3E6896F88530002B39D1214601207E
:104D1000FFF766FA3868022104F032F9B0E796F836
:104D20008180C7E717F07FFA08288146C6D086F849
:104D3000820096F89A2001999DF8110006F19303DC
:104D400017F03CFAC145C4D0C1E74B7903F0C0036A
:104D5000402BCBD133464A4617F030FA0028CBD14E
:104D60000299404607F034F90028C5D187E740464C
:104D700007F068F900281CBF06464FF00109B0E7AC
:104D80000EF01EFE0DF092FA002386F88530BDE786
:104D900010000020F01400202DE9F047072984B00E
:104DA0000E46044617464DD14068002800F08F801B
:104DB000637C012B00F0BA80DFF80C82D8F8003059
:104DC00093F88100082860D002AA0DF1070107F0CE
:104DD0000FF8002800F0F0809DF8070002A918F0F5
:104DE00018FE0546D8F80090062E99F849A000F262
:104DF0008F80BAF1000F18BF55464B4683F88B5091
:104E0000724B1B6833B139462046984789F88C00AD
:104E1000D8F80090636843B1627C89F89A201A68D8
:104E2000C9F893209B88A9F8973099F88C30012015
:104E3000002B00F0C680A3680BB1072E38D004B059
:104E4000BDE8F0874568002D00F09080437C012B81
:104E5000B2D16B7903F0C003402BADD1DFF868818C
:104E6000D8F8005095F88530002B7CD017F0DBF98E
:104E7000D8F8003085F8810093F8810083F882002B
:104E80000122082883F889209ED16168607C18F08F
:104E9000C0FDD8F80020616805468132607C06F0CC
:104EA00085FF00289ED1D8F80090A9F88B00C2E7B2
:104EB00099F881100829C2D00028C0D0184606F001
:104EC000CDFFD8F80030012283F88A20B7E7002A06
:104ED00052D0DFF8F480D8F8009099F849A0054640
:104EE00099F88B30002B5ED06368002B81D102F0E3
:104EF0004BFC20B1D8F8002092F88B502DB9BAF1B4
:104F0000000F53D0D8F8002055464B46914675E720
:104F1000082E2ED8002FE3D16368002B7FF469AFF1
:104F20006378DB06E3D54B46012567E7437903F059
:104F3000C003402B7FF440AFDFF88C80D8F80050DE
:104F400095F885307BB1002F90D195F8B1100129EB
:104F50008CD106F065FF85F88500D8F8005095F8EB
:104F60008530002B82D195F881002BE7DFF858803F
:104F700038E74B46002541E7134C2368012583F8A9
:104F80008B5093F8AB30002B3FF459AF2368D3F824
:104F9000AC00503019F03DFC00287FF450AF23687E
:104FA00083F88C504BE71D464B4627E706F0F8FE8A
:104FB000D8F800200546A8E740F651313220FBF72B
:104FC00013FE99F88B0036E7F0140020A0000020B3
:104FD0002DE9F04FDFF8FCB0847CDBF8007097F827
:104FE0008660012C83B0054689469246984686F035
:104FF000010637D0002497F88530224603B397F88E
:105000005030032B35D06B681BB397F88170082F95
:1050100025D03846019206F0A1FE019A002818BF5B
:105020000646EAB1DBF8003093F88A30002B46D010
:1050300017F003F9DBF800200021034682F88A10FC
:105040008AF8003089F8004088F8006003B0BDE8B5
:10505000F08F019202F098FB019A002835D17AB9BD
:105060000023EDE783685B7903F0C003402BC1D1D7
:10507000C1E797F84930002BC5D097F88470C6E790
:10508000DBF8003093F88970002FE9D1A86801930C
:10509000394606F0C5FE019B83F88500DBF8003039
:1050A00093F88530002BCBD0019317F0BCF808287B
:1050B0000ED0DBF80020019B82F88100C0E7A968D0
:1050C000384606F085FF0346BAE7DBF800709CE738
:1050D0003B46B5E7F014002008B507F0E7F8024BAF
:1050E00002461A70012008BD100000202DE9F04191
:1050F0006A4C6368D4F80080002205461A8018467E
:105100000F460EF0A5FB032D31D0052D4BD0606866
:1051100008F1930117F0B8FA98F89A10606817F040
:10512000C7FA236893F8862093F8417003F142068A
:105130005AB193F85020032A2ED093F8810006F03C
:1051400081FF00281CBF064601276068314617F022
:105150008DFA6068394617F09EFA514BD3F8043146
:10516000002B40F09680052D0BD0BDE8F0816068E3
:10517000037823F00F0343F0030303700C23437001
:10518000C6E723683168DA6CC2F80A10B188D181A9
:10519000DB6C5F72BDE8F08193F84920002ACCD027
:1051A00093F88400CBE7D4E90006317821F02F0191
:1051B00041EA471141F00501222331707370C36C3D
:1051C0001B6AC6F80F30C26C936BF3741F0A1B0C7A
:1051D00037757375D369B2F8407041F64B518B4205
:1051E000D16B3BD9DFF8BCC0ACFB01E1890AACFB59
:1051F00007C7BF0AF175C1F30721B7753176294991
:10520000A1FB0313C3F38F2373761B0AB376938C2E
:10521000F3761B0A3377D38C73771B0AB377D2F8F4
:10522000CF30C6F81F3092F8D33086F82330C36CE5
:1052300096F8242093F8DA3022F01F0203F01F03BF
:10524000134386F8243006F075FA96F8243003F0FC
:105250001F0343EA401386F8243058E7DFF848C0BC
:10526000ACFB01E14909ACFB07C77F09F175C1F34C
:105270000721B7753176A3F57A7741F270718F42C5
:10528000BDD80A49A1FB03139B0903F550639BB2E8
:10529000BAE740F237613220FBF7A6FCF014002099
:1052A000001000405917B7D11F85EB51D34D621044
:1052B00010B506F0FBFF0B4A0B4B1468187094F8FE
:1052C00085301BB90DF09EFE032010BD0EF078FB5B
:1052D0000CF0ECFF002384F885300DF093FE0320E2
:1052E00010BD00BFF01400201000002070B51F4C4E
:1052F00023680E2093F8B1100DF0DEFB236893F8BD
:105300005030032B29D165685DB328460EF0A0FA12
:10531000236893F8B13013F00C030CBF1846282013
:105320000EF000FB2668681D96F8B15006F0A6FD49
:10533000236886F8850093F8852052B115F00C0F8C
:1053400014BF552550250CF093FF28460EF02CFB7A
:105350002368082283F8702070BD01F087FD0546A0
:10536000D2E740F204513220FBF73EFCF01400205B
:1053700038B50D4D2C6894F8853063B900230121B0
:1053800084F87010A4F8B23084F8B4302046BDE838
:10539000384003F0C5BD0EF013FB0CF087FF00236F
:1053A00084F885302C68E9E7F014002038B50F4DFB
:1053B00006F07CFF2C680E4A94F88530107063B9B3
:1053C0000023012184F87010A4F8B23084F8B430BE
:1053D0002046BDE8384003F0A3BD0EF0F1FA0CF012
:1053E00065FF002384F885302C68E9E7F01400207D
:1053F0001000002038B5104D02F016F806F056FFE8
:105400002C680E4A94F88530107063B9002301218E
:1054100084F87010A4F8B23084F8B4302046BDE8A7
:10542000384003F07DBD0EF0CBFA0CF03FFF0023B7
:1054300084F885302C68E9E7F01400201000002083
:1054400038B506F033FF114D114B024628681A702B
:1054500000218E3016F0D5FB2C6894F8853063B9A6
:105460000023012184F87010A4F8B23084F8B4301D
:105470002046BDE8384003F053BD0EF0A1FA0CF011
:1054800015FF002384F885302C68E9E7F01400202C
:105490001000002038B506F009FF114D114B0246EF
:1054A00028681A7000218E3016F0ABFB2C6894F837
:1054B000853063B90023012184F87010A4F8B2305C
:1054C00084F8B4302046BDE8384003F029BD0EF022
:1054D00077FA0CF0EBFE002384F885302C68E9E7BE
:1054E000F01400201000002038B5234C236893F8F6
:1054F000B4205F2A9EBF5109204A555C5A6F88BF6D
:10550000002522B10120FFF7F3F980B32368D86F9B
:105510000EF0D6F9236893F85020022A1BD0032AF4
:105520000CD0062240F20110002183F8B15083F81C
:105530007020A3F8A90083F8891038BD93F8922051
:10554000012AEED115F00C0F0AD1294600200EF0E9
:1055500051FA2368E5E793F89220022AE1D1F1E7B6
:1055600093F85530012B14BF29460421EEE740F291
:10557000B4413220FBF738FBF0140020FC54040047
:1055800070B5154D0521286803F0F0FA50B12B686D
:10559000012093F8B1100EF02DFA2B680B2283F83E
:1055A000702070BD2E6896F8853063B90023012104
:1055B00086F87010A6F8B23086F8B4303046BDE8F0
:1055C000704003F0ADBC04460EF0FAF90CF06EFE2C
:1055D00086F885402E68E9E7F014002070B5164D76
:1055E00000210320FFF782FD2868032103F0BEFAA3
:1055F00040B1012108460EF0FDF92B68092283F81D
:10560000702070BD2E6896F8853063B900230121A3
:1056100086F87010A6F8B23086F8B4303046BDE88F
:10562000704003F07DBC04460EF0CAF90CF03EFE5B
:1056300086F885402E68E9E7F014002070B5374DF4
:105640002B6893F8B4205F2A9EBF5109344A565CF8
:105650005A6F88BF00262AB10120FFF749F90028B8
:1056600057D02B68D86F0EF02BF92C6894F8503077
:10567000022B2CD0032B0FD094F89230022B11D098
:10568000012B13D0DBB30523002284F8B16084F82A
:10569000703084F8892070BD94F89230012B1AD0B4
:1056A000022BEFD10023A4F8A930ECE794F8B13035
:1056B000A3F10203B3FA83F35B094FF0000263F333
:1056C000070263F30F22A4F8A9202C68DBE794F803
:1056D0009230022BD4D116F00C0F09D131460020A4
:1056E0000EF088F92C6894F89230022BC8D1D9E7D3
:1056F00094F85530012B14BF31460421EFE702F036
:1057000043F884F8A90001F03DFB84F8AA002C6856
:10571000B9E740F2B4413220FBF766FAF0140020FA
:10572000FC54040070B5264C236893F85030032BCA
:1057300024D16668002E3ED020680C2380F870309B
:10574000012103F01DFC00210520FFF7CFFC20689C
:10575000062103F00BFA0546A0B12368012093F857
:10576000B1100EF047F922683378D16CC3F34013BF
:10577000012082F89B3081F8CE0070BD01F076FBED
:105780000646D7E7266896F8853063B900230121DD
:1057900086F87010A6F8B23086F8B4303046BDE80E
:1057A000704003F0BDBB0EF00BF90CF07FFD86F8E6
:1057B00085502668EAE740F283513220FBF714FA5D
:1057C000F014002070B5B8B9A9B11E4A136893F857
:1057D000701008292CD993F870100C292DD893F843
:1057E0007030926803F180435268093BBDE8704015
:1057F00052F82330184770BD124D2C6894F885304C
:105800006BB904F1B2020023012184F87010A4F8EE
:10581000B23093702046BDE8704003F081BB0EF0BB
:10582000CFF80CF043FD002384F885302C68E8E7BE
:1058300041F20D413220FBF7D7F941F20E413220FF
:10584000FBF7D2F9F014002070B5294D2B6893F8BE
:105850005030032B82B026D16E68002E43D02868CA
:105860000A2380F87030002103F08AFB2A6833781D
:10587000D26C92F8CE4004EA531404F001040520DF
:105880002146FFF733FC2868042103F06FF970B15B
:105890002A683378D16CC3F3401382F89B3081F8C7
:1058A000CE4002B070BD01F0AFFA0646D5E72C68D5
:1058B00094F885306BB900230121204684F87010DC
:1058C000A4F8B23084F8B43002B0BDE8704003F000
:1058D00027BB01900EF074F80CF0E8FC019884F8F6
:1058E00085002C68E7E740F25C513220FBF77CF939
:1058F000F0140020F0B55B4C83B001F0CBFA2368C4
:1059000093F85030032B6FD16568002D00F0A48010
:10591000206890F8803090F87020034493F8B560C8
:1059200080F8B1601AB190F87030012B4AD190F82C
:1059300083204D4B13441F7938460DF087FA2368B6
:1059400093F8802083F89970134493F8B5707B1E08
:10595000072B72D8DFE803F0045D710471717104E4
:1059600001F04CFA39460DF0A7F828460DF070FF0B
:10597000394601200DF078FA012E39D1E81C26684D
:1059800006F07CFA236886F8850093F8852032B10A
:1059900040250CF06DFC28460EF006F8236893F8BD
:1059A0005020023A012A13D9002240F608000321B0
:1059B000A3F88100C3F8892083F8A82083F8701029
:1059C00003B0F0BD002103F0D1F820B32068AEE7AA
:1059D00093F880201A4492F8B5100129E4D10020F0
:1059E0000EF008F82368DFE701F00EFA05468CE7B1
:1059F000681D276806F042FA236887F8850093F847
:105A00008520002ACBD016F00C0F14BF5525502549
:105A1000BFE70D20A6E7256895F8853093B90023E8
:105A20000121284685F87010A5F8B23085F8B43009
:105A300003B0BDE8F04003F073BA4FF4FA613220CE
:105A4000FBF7D2F801900DF0BBFF0CF02FFC019892
:105A500085F885002568E2E740F2EE313220FBF759
:105A6000C3F800BFF0140020FC54040008B506F091
:105A70001DFC044B18700DF0C5FABDE80840FFF797
:105A800039BF00BF1000002010B506F00FFC0D4A12
:105A90000D4B1468187094F885302BB90DF0B2FADC
:105AA000BDE81040FFF726BF0DF08AFF0CF0FEFBAB
:105AB000002384F885300DF0A5FABDE81040FFF70B
:105AC00019BF00BFF01400201000002070B504467C
:105AD000FEF78AFA237A032B5DD0012B67D04BD8CF
