:1000000040A50020FDC70100BF470300E9C701006C
:10001000E9C70100E9C70100E9C7010000000000CD
:10002000000000000000000000000000CDC9010039
:10003000E9C701000000000099C90100E9C70100FB
:100040008DCB01003F7703008DCB01008DCB0100EC
:100050008DCB01008DCB01008DCB01008DCB01003C
:10006000F57603008DCB01008DCB010029770300CD
:100070008DCB01008DCB01008DCB01008DCB01001C
:100080008DCB01008DCB01008DCB01008DCB01000C
:100090008DCB01008DCB01008DCB01008DCB0100FC
:1000A0008DCB01008DCB01008DCB01008DCB0100EC
:1000B0008DCB01008DCB01008DCB01008DCB0100DC
:1000C0008DCB01008DCB01008DCB01008DCB0100CC
:1000D0008DCB01008DCB01008DCB01008DCB0100BC
:1000E0008DCB01008DCB01008DCB01008DCB0100AC
:1000F0008DCB01008DCB01008DCB01008DCB01009C
:100100007BB972B90029BEBF00204FF0004106E064
:1001100008BF00281CBF6FF000414FF0FF3000F017
:1001200057B8ADF1080C6DE904CE002909DB002BAE
:100130001ADB11F062F8DDF804E0DDE9022304B017
:100140007047404261EB4101002B1BDB11F055F879
:10015000DDF804E0DDE9022304B0404261EB410137
:10016000524263EB43037047524263EB430311F087
:1001700044F8DDF804E0DDE9022304B0404261EB1D
:1001800041017047524263EB430311F036F8DDF84A
:1001900004E0DDE9022304B0524263EB43037047FD
:1001A00053B94AB9002908BF00281CBF4FF0FF31DE
:1001B0004FF0FF3000F00CB8ADF1080C6DE904CE43
:1001C00011F01BF8DDF804E0DDE9022304B070470C
:1001D000704700BF2DE9F00791E8F807B2E8021078
:1001E0005B1854EB0C04B2E802104D4156EB0C06C0
:1001F000B2E802104F4158EB0C08B2E8021059EB7C
:1002000001095AEB0C0A80E8F80780410130BDE88B
:10021000F00770472DE9F00791E8F807B2E80210FF
:100220005B1A74EB0C04B2E802108D4176EB0C06FD
:10023000B2E802108F4178EB0C08B2E8021079EBBB
:1002400001097AEB0C0A80E8F80780414042BDE8DA
:10025000F00770472DE9F007524290E87800B1E8C6
:1002600080071740DB1918EA020854EB080419EA62
:10027000020955EB09051AEA020A56EB0A0678C08C
:1002800090E87800B1E8800717407B4118EA02083F
:1002900054EB080419EA020955EB09051AEA020AA7
:1002A00056EB0A0678C080410130BDE8F007704780
:1002B0002DE9F007524290E87800B1E88007174036
:1002C000DB1B18EA020874EB080419EA020975EB53
:1002D00009051AEA020A76EB0A0678C090E8780067
:1002E000B1E880071740BB4118EA020874EB080424
:1002F00019EA020975EB09051AEA020A76EB0A0601
:1003000078C080414042BDE8F00770472DE9F00118
:1003100052424FF0040890E8300091E8C000A31B5F
:100320001340E41AF618EB1B1340ED1AFF1830C007
:10033000C0C1B8F10108EED1BDE8F001704700BFBF
:1003400000B592E8DC072DE9DC07B1E8805702B47C
:10035000A7FB02510A95A8FB020BE7FB6310E9FB20
:1003600062B00B91A8FB0351EAFB6201E7FB64B5A5
:10037000E7FB6605E8FB6615CDF830B0A9FB03B6D0
:10038000EAFB6316ECFB6356E8FB640BE9FB641BBA
:10039000EAFB645BECFB646B0D90ACFB0230059CEC
:1003A000EEFB6250E9FB6460EAFB64B0E7FB64319A
:1003B000E8FB6451069CE8FB6461E9FB64B1EAFB7D
:1003C00064010E93A7FB0432079CE7FB6462E8FB21
:1003D00064B2E9FB6402EAFB6412049CE9FB645327
:1003E000EAFB6463089CE7FB64B3E8FB6403E9FB96
:1003F0006413EAFB64230F955DF8049B99E80006FB
:10040000DDF80080A9FB0854EAFB68B4DDF8108031
:10041000ECFB6804EEFB6814E9FB6824EAFB683433
:10042000DDF80480EEFB6865E9FB68B5EAFB68056A
:10043000DDF81480ECFB6815EEFB6825E9FB6835F8
:10044000EAFB68450F96DDF80880AEFB0876E9FB0D
:100450006806EAFB6816DDF81880ECFB6826EEFB00
:100460006836E9FB6846EAFB6856DDF80C80ECFB71
:1004700068B7EEFB6807E9FB6817EAFB6827DDF859
:100480001C80ECFB6837EEFB6847E9FB6857EAFB2A
:10049000686708B000BD00BF2DE9F14F87B0FFF7D6
:1004A0004FFFDDF81C8008F1200888E8FF00FFBC42
:1004B00087E87F08BDE8F08F00B591E89857A3FB67
:1004C00003520195A3FB0401E3FB6420E3FB6710E7
:1004D0000292A3FB0752E3FB6802E4FB6415E3FB13
:1004E0006805E3FB69250391A4FB07B6E3FB6926D6
:1004F000E3FB6A56E4FB670BE4FB682BE3FB6A5BF8
:10050000E3FB6C6B0490A4FB0810E4FB6950E3FB75
:100510006C60E3FB6EB0E7FB6721E4FB6951E4FB31
:100520006A61E3FB6EB1E4FB6E010592A7FB083242
:10053000E4FB6A62E4FB6CB2E4FB6E02E7FB6E1262
:10054000E7FB6853E7FB6963E4FB6CB3E7FB6C0311
:10055000E7FB6E13E8FB6E230695A7FB0954E7FB48
:100560006AB4E7FB6C04E8FB6C14E8FB6E24E9FB5F
:100570006E34E8FB6865E7FB6AB5E8FB6A05E8FBF3
:100580006C15E9FB6C25E9FB6E35EAFB6E450796B9
:10059000A8FB0976E8FB6A06E9FB6A16E9FB6C260C
:1005A000EAFB6C36EAFB6E46ECFB6E56E8FB69B77D
:1005B000E9FB6907E9FB6A17EAFB6A27EAFB6C3784
:1005C000ECFB6C47ECFB6E57EEFB6E6700BD00BFAB
:1005D0002DE9F14F87B0FFF76FFFDDF81C8008F1C0
:1005E000200888E8FF00FFBC87E87F08BDE8F08F9F
:1005F00030B44FF0000310F8014B11F8015B013AE1
:1006000084EA050443EA0403F5D1A3F101034FEAA8
:10061000D37030BC704700BF4FF0000310F8012BBF
:10062000013943EA0203F9D1A3F101034FEAD37080
:10063000704700BF30B411F8014B12F8015B6C40F9
:1006400000F8014B013BF6D130BC70472DE9F007B3
:1006500091E8F807B2E802105B1854EB0C04B2E81A
:1006600002104D4156EB0C06B2E802104F4158EB18
:100670000C08B2E8021059EB01095AEB0C0A894147
:10068000B3F1FF3374F1FF3475F1FF3576F10006F5
:1006900077F1000778F1000879F101097AF1FF3A62
:1006A00051F100015B184C414D4156F1000657F1E4
:1006B000000758F1000859EBD1795AEB010A80E89C
:1006C000F807BDE8F00770472DE9F00791E8F80753
:1006D000B2E802105B1A74EB0C04B2E802108D4110
:1006E00076EB0C06B2E802108F4178EB0C08B2E80A
:1006F000021079EB01097AEB0C0A89415B184C4135
:100700004D4156F1000657F1000758F1000859EB2A
:10071000D1795AEB010A80E8F807BDE8F007704785
:1007200018EB040859EB05095AEB060A5BEB070BBB
:100730005FF0000C4CF1000C18EB050859EB0609B2
:100740005AEB070A5BEB070B50EB0C005FF0000C59
:1007500051EB0C0152EB0C0263414CF1000CB8EB75
:10076000070879F100097AF1000A7BEB040BA84134
:10077000B141A241B3416CF1000CBBEB050BB041A0
:10078000B941AA41BB416CF1000C4CF001068CF060
:10079000020718EB060859EB6C095AEB6C0A7BEB65
:1007A0006C0B70EB6C0471EB6C0572EB670653EB32
:1007B0006C076CEB6C0C18EB0C0059EB0C015AEB52
:1007C0000C025BF1000354F1000455F1000556EBF7
:1007D000DC7657EB0C0770472DE9F14F87B0FFF738
:1007E000AFFDDDF81080DDF81490DDF818A0FFF7FC
:1007F00097FFBDE8000FFFF793FF03B05DF8048B90
:1008000088E8FF00BDE8F08F2DE9F14F87B0FFF7D2
:1008100053FEDDF81080DDF81490DDF818A0FFF726
:100820007FFFBDE8000FFFF77BFF03B05DF8048B8F
:1008300088E8FF00BDE8F08F1FB50B4B01934FF424
:10084000B073ADF8083008238DF80A3083788DF83E
:100850000B3001A9FF2303208DF80C3000F0FEFCC3
:1008600005B05DF804FB00BFBB5601001FB50B4B84
:1008700001934FF48063ADF8083008238DF80A30F7
:1008800043788DF80B3001A9002302208DF80C303D
:1008900000F0E4FC05B05DF804FB00BF775B0100ED
:1008A000F7B504460D4641B9124B5B78012B04D0D5
:1008B000019101A80121FFF7F3FF23680E4E0F4FAE
:1008C0000733002D23F0070323600CBF20460020D0
:1008D00000F09CFC002556F8043B0BB138469847C5
:1008E00001350F2DF7D100F009FD23680344236083
:1008F00003B0F0BD380F0020540000203A0F002054
:100900002DE9F04385B0974C0390064603A80D46A9
:10091000FFF7C6FFA778E3784FF000091F44FFB246
:10092000C8465FFA89F39F4200F2098103980330B9
:1009300020F00300002D0390414618BF002000F076
:1009400029FE039B21791844039081B16379627C6D
:10095000033020F00300002D1A440390A389D2B283
:1009600018BF002000F08AFE039B034403937E4FD0
:100970007B68CBB1E17AB9B194F828300398002BA9
:1009800000F1070014BF4023252320F0070014BF07
:100990004FF481722822002D039018BF002003F02D
:1009A000D9F9039B03440393A17B91B123791BB92C
:1009B0007B6873B1E37A63B10398073020F00700D6
:1009C000002D039018BF002006F02CF9039B034470
:1009D0000393664B1B6873B1A17961B10398E27B05
:1009E000033020F00300002D039018BF002098472B
:1009F000039B034403935E4B1B686BB1217C59B18D
:100A00000398033020F00300002D039018BF00204E
:100A10009847039B03440393564BD3F80080B8F1E7
:100A2000000F11D0617C79B10398237D00930330CE
:100A300020F00300002DE37C0390A27C18BF00206F
:100A4000C047039B03440393FB697BB1A17969B160
:100A50000398A27D033020F00300002D039018BFFF
:100A6000002000F0F9FE039B0344039394F8210057
:100A700080B1039AE37E217E0332194422F00702FB
:100A800042F004022B46C9B2039200F025FF039BFB
:100A90000344039394F8221000295AD0039FA28C98
:100AA0000737002D27F007070CBF384600200397B3
:100AB00011F03EFC039B034403931DB9A18C3846FF
:100AC0000BF0ACFD217F002945D094F82030002B9D
:100AD00041D00398E28B073020F00700002D02F18F
:100AE0002402039092B218BF002011F021FC039F52
:100AF000A37E217E3A180332194422F0070242F005
:100B000004022B4694F820000392C9B200F0D6FEEE
:100B1000039B0344039335B9E28B217F083292B2E1
:100B200038460BF095FDE36A23B1039B05B9E362F8
:100B3000283303930398801B05B0BDE8F083A37AA4
:100B4000627A217AE07911F0C5FB09F1010980444C
:100B5000E7E60F46B1E7002DE5D12A4629462846AB
:100B6000DFE700BF380F0020540000209000002075
:100B700098000020940000208FB572B6194B1D6BB1
:100B8000E5B9BFF34F8F1849184BCA6802F4E06209
:100B90001343CB60BFF34F8F00BFFDE7B4FBF6F408
:100BA000DAB20133002CF9D102F110036B440A26AA
:100BB00003F80C4C32B901A8A847E2E70446002329
:100BC0000A26EDE7531E04AC54FA83F4DAB2C3B23A
:100BD000B3FBF6F706FB1733303304F80C3CB0FBDD
:100BE000F6F0E7E7380F002000ED00E00400FA051A
:100BF0001FB5164CA37A8DF80930637A8DF808304A
:100C0000237AADF80C3002A8E379ADF80A3004F08D
:100C1000F7F818B1DB210320FFF7AEFF012301A88D
:100C20008DF8043012F0AFFD08B1DF21F3E7207D2D
:100C300004F016F908B1E221EDE7E07C04F00AF9CE
:100C400008B1E321E7E704B010BD00BF380F002072
:100C500038B50546002840D00FF00AFE10B94FF015
:100C6000FF3038BD0CF008FCB0F5FA7FF7D81D4C0A
:100C70001D482563002500F06BFA29463C221B48DD
:100C8000657010F077F926222946A01C257084F89B
:100C90002850E56210F06EF91B22E27140F21B321F
:100CA000228140F2023240F2011362811F226380EE
:100CB000A28101234FF402722371E281A37544F6ED
:100CC0000112FB236282A384EFF3108472B600F05A
:100CD00013FE2CB962B62046C3E76FF01500C0E7DB
:100CE0002846BEE7380F0020F10B0000540000201A
:100CF00010B5002840F0A380544C6378022B00F01C
:100D00009B80A1B1002A6CD00139142900F2978090
:100D1000DFE801F00B181B2B535B74315E616F37FA
:100D20003D4A4F797C898C8F81001378A370012113
:100D30000020FFF7E5FDB0F5803F80F283800123BE
:100D4000637010BD1378E370F1E79378002B48D0FF
:100D5000D378002B45D013781A2B42D953781A2B0D
:100D60003FD91368C4F80730E1E7137862799342FA
:100D700037D32371DBE713782279934231D863713B
:100D8000D5E71378227993422BD86374CFE7137891
:100D90003BB35378013BDBB2F82B22D81388638234
:100DA0002B4B92789A70C2E71078607509F02EFB91
:100DB000BDE71378ABB1A375B9E71378254A52683C
:100DC0000AB1012B0DD9E372B1E71388A381AEE715
:100DD0001378A371ABE71F491378C96921B9012BB7
:100DE00004D86FF01500ACE7002BFAD01378E3734A
:100DF0009DE71378082BF4D8237498E71388FF2B0A
:100E0000EFD8A37393E71378E37590E713780E2B6D
:100E1000E7D823768BE713680F49E36153684B608B
:100E200013890B8183E71378637680E71378E37681
:100E30007DE71378A3767AE74FF0FF3081E76FF014
:100E40002C007EE76FF00B007BE700BF380F00201F
:100E50004A0F002054000020540F002070B50D46AA
:100E60000646E8B1E1B111F0070419D100F0A4F889
:100E7000C8B130460FF070FE0C4E214686F83400A3
:100E80002846FFF73DFD15F031F896F83400F16A79
:100E900004F060F8FFF7ACFE02237370204670BDCB
:100EA0006FF01500FBE74FF0FF30F8E7380F002038
:100EB00010B5074C6378022B05D104F067F894F85D
:100EC00034000FF065FE11F066FB0020607010BD6D
:100ED000380F002050B1074B03F1140253F8041BE4
:100EE00040F8041B9342F9D1002070476FF01500C1
:100EF000704700BF8900040010B5064B5C7834B918
:100F000003F0F2FF044B054ADA60204610BD4FF0B3
:100F1000FF30FBE7380F00205400002039080000A4
:100F200010B5064B5C7834B903F0F2FF044B054A68
:100F30009A60204610BD4FF0FF30FBE7380F0020CD
:100F4000540000206D08000010B5054B5C781CB9FA
:100F500003F08CFF204610BD4FF0FF30FBE700BFD1
:100F6000380F002010B5054B5C781CB912F054FC0A
:100F7000204610BD4FF0FF30FBE700BF380F0020C8
:100F800010B5054B5C781CB912F049FC204610BD29
:100F90004FF0FF30FBE700BF380F0020024B026824
:100FA0001A600020704700BF700F0020014B1B68C3
:100FB000184700BF700F0020024B1868003818BF98
:100FC00001207047700F002073B52E4D031D04469D
:100FD0002B60284604F0C2FE0228064606D12949A5
:100FE000204610F087FA304602B070BD042842D186
:100FF0002B78092B0AD0252B1ED02946204610F02D
:10100000DEFAB0F5817F2DD3722112E005213E205A
:1010100010F043FA0028F0D1EB782A7901A943EACD
:1010200002236846ADF8003010F0E8FE0028D0D06A
:1010300053210820FFF7A0FD1A213E2010F02DFAC1
:101040000028DAD16B68C3F30F23ADF8043069468A
:10105000112301A88DF8063010F0F4FE0028B8D056
:101060006521E6E70028B4D0A178207810F015FAC1
:101070000028B8D1ADE70828B5D10249204610F0C4
:1010800068FAB0E7740F0020074B4FF0FF3141F6CC
:10109000FF72C3E9001205490022C1E900221F21A5
:1010A000C3E90212704700BF000000207810002042
:1010B0003F280CD801380B4BC0F3421200F01F0040
:1010C00053F8223023FA00F000F001007047FF28A7
:1010D00006D04038C0F34212034B00F01F00EFE788
:1010E0000120704700000020781000200146074BC7
:1010F000006849681A4603C240F48C221A6041F025
:10110000107242F4FF625A60704700BF0000002076
:101110000246024B0068516803C3704778100020F4
:101120000246024B0068516803C370470800002064
:101130000138064BC0F3421203EB820300F01F009C
:101140009B6823FA00F000F00100704700000020C7
:10115000014B1860704700BF8010002010B5FFF7EA
:1011600093FF11F02AFD034B1B68044603B1984717
:10117000204610BD801000200B880288F0B5C3F314
:101180000E049EB204F11803C57CC35A05352A44E7
:101190002B4497B213FA82F3013B4288B3FBF7F377
:1011A00013FB07439BB29A42044A93BF22EA060309
:1011B000324013439BB20B80F0BD00BF0080FFFFA5
:1011C00010B5114B00EB41041A786389B3FBF2F3BD
:1011D00003FB0223013A1A44B2F5706F027928BF6B
:1011E00000231A448378B2FBF3F0194403FB102068
:1011F000091AB1FBF3F003FB101313446FEA4343E6
:101200006FEA5343638110BD8410002010B5124B68
:10121000E0B15A78022A04D040F22B111720FFF7D0
:10122000ABFC03225A70026812F0070102D04FF49F
:101230009871F3E75C685A60224402609A60BDE8E6
:1012400010403C2203F10C000FF094BE01225A70B2
:10125000C3E9010010BD00BF841000202DE9F0415A
:10126000254E96F801E00EF0FD0CBCF1010F04D004
:1012700040F245111720FFF77FFC91F80680B8F186
:10128000080F02D940F24711F4E7CF7997B34546EA
:10129000022D726838BF02257B1D5C0002EB430300
:1012A0006A1E13446D422B408D884544013DC8F1B0
:1012B00000022A404FF6FE75AA4202D94FF4A971E6
:1012C000D8E7BEF1030F12D106EB80001C1BC568E6
:1012D00015B140F25711CDE7C460A770228084F8A1
:1012E00003C0087A09682071080CE080218107FB9F
:1012F00002337360BDE8F081841000202DE9F047CF
:10130000364C6378012B65D0032B04D040F2671173
:101310001720FFF731FCD4E901329A4202D04FF492
:10132000B571F5E72546002305F80C3B1E460E2255
:10133000994655F82200013A58B190F80480817816
:10134000B8F1FF0F2FD180F804908E423CBFCEB28F
:101350000123511CEDD103B126700E2640F6FF6922
:1013600055F826709FBB013EFAD20423637000201B
:10137000BDE8F08755F82CE0BEF1000F06D09EF8CE
:1013800004A0C24504BF9EF802E077440CF1FF3C84
:10139000BCF1000FEEDA3944FF2907D903B12670FA
:1013A0004FF48371B4E794460027F1E70771CCE767
:1013B00007EB41033846A3F80A90FFF701FF08F155
:1013C0000108BB785FFA88F18B42F1D8CBE74FF088
:1013D0000008F6E7022360686370C9E78410002004
:1013E000034B03EB8003D86800B18078704700BFDF
:1013F00084100020F8B54FF6FF730380184B03EB01
:1014000081030546D868B8B186780379B3FBF6F254
:1014100006FB1233DBB219460A1D00EB4202B2F999
:1014200002705488002F09DB0131B1FBF6F206FB94
:101430001211C9B28B42EFD10020F8BDFF29FBD0B9
:10144000C4F30E03C4782B8024B94FF4D97117204C
:10145000FFF792FB5380BDE8F84010F01ABF00BFC1
:10146000841000201D4B03EB810370B5DC6805463A
:1014700044B3030404D54FF4E0711720FFF77CFB5D
:101480000146204610F0E7FEFF28014604D0204622
:10149000BDE8704010F0FDBEA078B5FBF0F300FB96
:1014A0001353DBB219460A1D04EB4206B6F902607B
:1014B000002E09DB0131B1FBF0F200FB1211C9B2C1
:1014C0008B42F0D1002070BDFF29FBD08B4204EB92
:1014D00042021CBF0023E3705580D8E7841000202F
:1014E000094B03EB810310B5DC680146204610F080
:1014F000B2FEFF28014604D02046BDE8104010F09F
:10150000C8BE002010BD00BF84100020F8B5104BED
:1015100003EB81030746DC680146204610F09BFE82
:10152000FF28054611D0E688238953EA064606D0EF
:101530000146204610F0ADFE01463846B047204631
:101540002946FFF73DFE0020F8BD0320FCE700BF61
:101550008410002038B50E4B827903EB82030446D9
:10156000D86808B9022038BD8278E1799142F9D271
:101570004B1CE37100EB41035D89B3F90A30002B8A
:10158000F3DBA58010F085FE20600020EBE700BFB4
:101590008410002070B5044610F003000E4603D0FE
:1015A00049211820FFF7E8FA10F0F9FD054624B1AB
:1015B00003483146046010F0F2FD284670BD00BFBC
:1015C000CC1000202DE9F04F1E4C85B092462268C9
:1015D000BDF83CB098468146BDF838300D461AB982
:1015E0005B211820FFF7C8FA1A460A2150460393D8
:1015F00010F080FC5A4606460921404610F07AFC5D
:1016000031180746206810F0F5FD039BC9F800006B
:1016100018B9286005B0BDE8F08F84192C60D9F89E
:1016200000000093524631460A2310F015FC28684A
:10163000CDF838B009234246394605B0BDE8F04F31
:1016400010F00ABCCC10002070B50E46044610F015
:101650005AFC0546304610F056FC044B2A18214629
:101660001868BDE8704010F0EFBD00BFCC1000203E
:10167000014B186810F0B1BDCC100020F8B5114432
:101680001D4EC9B210F00305317003D04D21092061
:10169000FFF772FA1F2B19D89B009BB2033323F07C
:1016A00003039BB208B17060338101EB810476685B
:1016B000E2004FF0010C00EBC404EFB2B94212D8C3
:1016C000D01D03FB010020F00700F8BDFF2B4FEAFF
:1016D000430204D9FF339342DFDB93B2DEE77C2A77
:1016E000FBDC7C23DAE710B186F800C074600135BA
:1016F00028361C44E1E700BFD010002038B5144A5A
:10170000147853680021C8B2844203D8A821092064
:10171000FFF732FA1846013105782833002DF2D050
:101720000021817001241289447044688161C16183
:10173000920800F12001051D21F8022B994245F87D
:10174000044B1444F8D100234361037038BD00BF3B
:10175000D01000200A4B1B89B3F5FF7F4FEA93009E
:1017600006D25A089B1A9BB2984238BF1846704757
:10177000B3F5EE6F01D8FF22F4E740F27263F3E7AE
:10178000D01000202DE9F8434B7880460C4602F03B
:10179000040602F0FB07D3B1DFB12E4BD4F804905E
:1017A0001D89B7BB01236370AD08A761E76104F130
:1017B00020034A46211D04F1280023F8025B9842C9
:1017C00041F8042B2A44F8D10023636101E0002F83
:1017D000E3D0FF23A370002E18BF0226A3191B7DA0
:1017E000032B03D1022F1CBF0136F6B2A31901222D
:1017F0001A7506F10C0204EB8606002324F8123059
:101800007268A370C8F80020A8F804304046BDE80C
:10181000F883002114226170A0180FF0ABFBB5F51E
:10182000FF7F0FD26B08ED1AADB209EB0502C4F8C9
:1018300004902584A2606384C4F80C90A58422617E
:10184000E384C6E7B5F5EE6F4FF0FF03EBD940F246
:101850007265EAE7D01000202DE9F74305460C46F3
:10186000F7200521904610F045FB064685B115F09E
:10187000030703D08F211920FFF77EF9DFF8389096
:10188000C9F81050A9F81400A5B2BBB29D4204D803
:1018900006FB04F003B0BDE8F083B9F814C0D9F832
:1018A0001000CDF8008007FB0C000523F72231461D
:1018B00010F0D2FA0137E8E7E410002007B5CDE9CF
:1018C00000230B4603490246081D10F03EFE03B0FC
:1018D0005DF804FBFC10002013B5064CCDE9002395
:1018E0000B46024604F1080104F10C0010F02DFE35
:1018F00002B010BDFC100020134B012200214FF05C
:10190000FF309A60C3F80012C3F80803C3F800154B
:10191000C3F804259A60C3F80803C3F80015C3F898
:1019200004250A490A4A03F580334FF40040C3F8FE
:101930000825C1F88000BFF34F8FBFF36F8FC1F848
:101940008001C3F80825704700F0004000E100E086
:101950000000F63F8C46382300B50CF8033B054BDE
:101960008E4607CBCEF80300CCF80410CCF8082044
:101970005DF804FB1C11002070B5234DE96AAC6AC8
:101980000B7803F00303032B04F1A8041AD16B8E28
:101990002A8E0120034342F400626B8620756B6B34
:1019A0002A869847E96A237F013B18BF01232377E2
:1019B0004B7833B1D4E92232013342F10002C4E959
:1019C000223270BD002BEED04B78002BEBD02A8E4C
:1019D00042F400622A86AA6B002AF2D0FB2B08D8B8
:1019E00095F83C3063B16B6B0021BDE8704020205E
:1019F000184795F83D3043F0100385F83D3070BD31
:101A000001230370CFE700BF1011002010B5174C61
:101A100009F0FCFB08F0E2FE636B208E0021984782
:101A2000237E73B9A36A93F89E30022B1AD0236CDD
:101A300094F83D1094F83E009847002384F8443011
:101A400010BD94E8070004F10C0383E8070008497F
:101A5000022204F1190012F030FEA36A93F89E30BE
:101A6000022BE4D1034805F093F8E0E710110020C1
:101A70005519000034110020034B93F8443003B98A
:101A80007047FFF7C3BF00BF1011002038B5234DCA
:101A900095F8243004460BB101280ED0012913D843
:101AA000EB6C2046984778B195F83D3063B995F8CE
:101AB000240058B164B1002038BD6B8E1B07EDD5F2
:101AC000AB6CDB78022BE9D1012038BD012CF3D1BE
:101AD00095F85030DC06C3F300110BD50023AA6B38
:101AE0007AB1A8B16A8E920712D5AB6CDB78022B63
:101AF000EAD1E0E76B6D1B78C3F30013C3F1010378
:101B0000EDE7B5F85820002AEBD00029DCD0E8E753
:101B1000002BD9D16A8E002ACDD0D5E71011002034
:101B200008B5094B93F84420022A07D1DA7A42F02B
:101B30000102DA72BDE80840FFF768BF4FF40F7189
:101B40002720FFF719F800BF10110020F8B5254C29
:101B5000A66A636DE36296F8CC30054606F1A807E5
:101B600094F85A000BB10430C0B296F87D100DB94C
:101B7000FF282ED009F0A4F897F824301BB3E06DAD
:101B800009F06AFF94F82430E16DE06A003B18BF69
:101B9000012384F87830D7E92223C4E91C2308F014
:101BA000C1FD3DB996F87D0010F00C0018BF28204B
:101BB00009F0BCFF96F87C1000200AF01FF8022301
:101BC00084F84430F8BDE06A09F046FF08F006FEEC
:101BD000E7E796F87C209142D0D009F071F897F8A9
:101BE0002430CBE71011002070B57F4CA56A82B07D
:101BF00095F8CC20002305F1A8068DF8053094F85F
:101C00005A300AB10433DBB210B9FF2B00F0B280B6
:101C100095F87C10FF2009F053F8B37E032B00F2F7
:101C2000DE80DFE803F0021D807094F8BA30ADF872
:101C300006306E48A5F86C3003F0A2FB002840F097
:101C4000A180D4F8BC000DF105020DF1060110F0E1
:101C50007CF9A06420B196F86130002B00F0A980D7
:101C60006348A064F37EDB0003F00802037803F00E
:101C7000F3031343327F920002F00402134303F094
:101C8000EF0203F00303032B027002D1C378022B8F
:101C900012D0D4F8BC0010F0C3F948B9A06C027897
:101CA00002F00303032B07D003F090FB002879D147
:101CB000A06C027842F01002027096F8233013B143
:101CC0004378002B43D109F0C7FE08F087FDA66CCE
:101CD00004F0B4F920B1337803F00303032B64D08C
:101CE00095F87D10012009F089FFA36C414A1888FE
:101CF0009978A4F85000012384F8C030917084F8DA
:101D0000443002B070BD394803F03AFB002861D07E
:101D1000A06CC3781B2BA5D1012105F1100009F09F
:101D200005F8A06C9EE7B5F86C30D4F8BC00ADF8AF
:101D300006300DF105020DF1060110F006F9A06460
:101D400000288FD140F2D5212720FEF715FFE06D46
:101D500009F082FE94F82410E06DD6E92023B1FA50
:101D600081F67609A16C84F87860C4E91C2308F038
:101D7000D9FCACE795F87D3095F87C108B427FF468
:101D800049AF4AE7638EA16C626B43F08003802009
:101D900063869047A06C01217175C3781B2B7FF47B
:101DA00061AFBAE7A06C027886E701200BF004FB74
:101DB00096E79DF805302BB1BDF8061012F038FCFF
:101DC000A06C4FE703808370A06C012112F025FB0B
:101DD000A06CF1E740F2DE212720FEF7CDFE40F2B5
:101DE000EB212720FEF7C8FE10110020581100201B
:101DF00098110020601100202DE9F041434C94F827
:101E00004420A56A012A82B006460F4605F1A805BE
:101E10005FFA82F874D12B7D6BB1638E002143F0A1
:101E2000040363862975636B0420984794F8243073
:101E30000BB185F81680A16C0A7802F00302032A20
:101E400036D04B78EBB10223AB7695F82430F3B162
:101E5000A36A93F87D10D5E92223C4E91C2394F8E2
:101E6000243094F85A20003B18BF0123013984F82C
:101E7000783007293FD8DFE801F03B133E113E3EA2
:101E80003E380123AB7695F82430002BE0D106B91B
:101E900007BB02B0BDE8F041FFF7B8BD4FF0030843
:101EA000002300931A494346012008F0C3FBEEE7E4
:101EB000AB7E63B9638E43F0020363860220636BDB
:101EC0009847A16C0B7803F00303032BB9D10323CC
:101ED000AB76BAE731463046FFF7D8FD0028D8D1B7
:101EE00002B0BDE8F041FFF731BE4FF00208D7E77E
:101EF0004FF00008D4E740F2B2310620FEF73CFE76
:101F000040F275412720FEF737FE00BF1011002078
:101F10007011002070B50C4B0C4C0D4A1A6094F8EF
:101F2000443063B906460D4603F0FF02012104F177
:101F30008800227612F071FA6665E56570BDDE21D3
:101F40002720FEF719FE00BF9C0000201011002082
:101F50000C280000044A92F8443003F0FF000BB94B
:101F6000107670470C20704710110020024B0122A0
:101F700083F83C20704700BF101100202DE9F0438A
:101F8000BA4C85B002AD85E8030094F844100C9873
:101F9000002940F0D481002A00F0D181002B00F00C
:101FA000CE81002800F0CB8101F0FF06206495E887
:101FB0000300E36404F1240383E80300A56A626379
:101FC00084F83C6084F83D6084F8C16084F83E6029
:101FD00084F8C0606686268608F008FF08F0FEFBDD
:101FE00095F9800009F026F805F1A807A86B09F01B
:101FF00017FD286A09F024F897F8340009F02AF848
:1020000094F82430002B6AD004200FF069F8EA69B4
:1020100041F64B539A4294BF4D20962008F024FE7F
:10202000A36A93F8F032002B40F01D8195F87D10E3
:10203000012009F0FDF9002864D08D4B186809F0E3
:10204000F5FC6B69C4F8BC30AB69C4F8C43095F8D2
:102050008B3023B9D5F88410002940F0C380D7F81D
:102060009000D7F89410D7F89820D7F89C30DFF874
:1020700004C2ACE80F00D7F8A030C4F87930D7F824
:10208000A430CCF80D30A36A94F8241093F8C6203D
:10209000A2F12600002938D1012803D993F8C700FE
:1020A000262838D193F8322393F87C80002A40D038
:1020B000B8F1080F3DD0B8F1040F00F02581082ACF
:1020C00000F02281042A00F01F81B8F1010F30D006
:1020D000012A14BF4FF002084FF0010829E0032045
:1020E0000EF0FEFFEA6941F64B539A4294BF4D2031
:1020F000962008F0B9FD95F87C10002009F098F9B9
:1021000000289AD105B0BDE8F08301287BD993F867
:10211000C700262877D0213A012A40F2CB80242814
:1021200000F0E68093F87C80B8F1040F08BF4FF010
:10213000080805F144094146484612F07BFB414638
:1021400011F041FEB5F8503095F87D1002469342EB
:1021500028BF1346484684F8BA3012F031FB95F890
:102160007D1097F82490B5F85880082908BF0421FD
:1021700011F029FEB9F1000F01D1043080B24045C1
:1021800028BF40465FFA80F884F8C88003F056FF05
:1021900020B1B8F12B0F38BF4FF02B0894F8241062
:1021A00084F85A80002957D197F82330002B3AD071
:1021B000012384F87830D7E92023C4E91C2395F85B
:1021C0007C30E86941F64B52013B904294BF0420B9
:1021D0000020072B00F29B80DFE803F01E9E991D74
:1021E000999999A0B7F84E203B8B93427FF437AF73
:1021F000B5F888201344A7F84E3095F88A000122DC
:102200000BF0BEF82BE793F8CE2393F87C80002ADE
:102210007FF44EAF8DE7032100220B460092154953
:10222000FB2208F007FA0120FFF7DEFC124BD3F87F
:10223000503523F00803032B00F086800023C4E907
:102240000033A3602A88398B97F83430618022806C
:10225000237105B0BDE8F08397F8243073B90120ED
:10226000FFF774FCE2E708F0AFFDDFE61011002095
:102270009C0000207011002000100040D7E92201CE
:1022800095F87D300122013BC4E91C0184F87820D7
:10229000072B3CD8DFE803F005443B043B3B3B46BF
:1022A00003260021009133462A494246012008F0C6
:1022B000C1F9D4E724281BD000293FF433AF93F8A9
:1022C0006E2193F87C8050071ED412F001032BD1AD
:1022D00093077FF52EAFB8F1080F3FF42AAFB8F19E
:1022E000040F11D0B8F1010F18BF4FF0020820E71A
:1022F00000293FF417AF93F8751093F86E2193F807
:102300007C800A405107E0D54FF0080811E740F201
:10231000B2310620FEF730FC01217DE702217BE788
:102320000126BEE70226BCE7B8F1080F3FF401AF73
:10233000B8F1040F14BF98464FF00808F9E640F2D0
:102340004F112720FEF718FC40F2F9112720FEF765
:1023500013FC00BF7011002010B5194C94F84430E4
:10236000F3B194F8243093B194F84430022B21D186
:10237000A36AD3F8080309F0A7FBA16A91F88B3090
:1023800003F0FF0213B9D1F8843063B910BD94F89B
:102390004430012BF1D040F20E212720FEF7ECFB58
:1023A000FFF734FBE9E791F88A00BDE810401146D9
:1023B0000AF0E6BF40F212212720FEF7DDFB00BF46
:1023C00010110020FFF722BB014B1876704700BFA9
:1023D00010110020014B93F8C0007047101100202D
:1023E000024B188EC0F38020704700BF10110020F0
:1023F000014B93F8C1007047101100202DE9F04106
:102400001E4FBC6A820782B005460E4604F1A8043E
:1024100011D4EB070CD5D4E92232217F013342F1EC
:1024200000020129C4E922320CBF002301232377D3
:1024300002B0BDE8F081BB6BDBB1B7F85820F96A98
:102440001846033291F801800EF01CFD0DF10202D6
:1024500001A9F862D7F8C4000FF097FE01980FF0B9
:102460007EFE012230604146D7F8C4000FF023FE03
:10247000CFE740F266412720FEF77EFB10110020D7
:102480002DE9F047B24C86B00023CDE904338DF836
:102490000F3094F84430A56A022B06460F4605F12A
:1024A000A8055FFA83F840F0A281238E13F0400163
:1024B00006D1636B40209847238E43F04003238668
:1024C000002E5AD095F82430002B40F01881D4F813
:1024D0002CA09AF8011089B2A4F85810002940F0F5
:1024E00025810023A3639AF80000238EE97EC0F3C0
:1024F000800243F480739142238600F0CC80A26A6C
:1025000094F8241002F1A80999F81A20EAB1022AD5
:1025100000F05381002389F81A3021B199F8162070
:10252000002A40F03F8199F81530002B40F01681C9
:1025300099F81B30D4F82CA0012B0CBF00230123E9
:1025400089F81B309AF80000238E43F480622286BB
:102550002A7FC0F3C0039A424FF0000900F0A28026
:1025600003F06CFDC0B19AF8003003F00303032BB5
:1025700012D101200AF020FF0EE095F82420002A55
:1025800040F0B98043F40073238694F8C1300133DE
:1025900084F8C1304FF0000995F823305BB394F80C
:1025A0002430A26AB3FA83F3D06992F87C105B09F5
:1025B00084F8783041F64B53984294BF04200020B1
:1025C000D5E920230139C4E91C23072900F2E28060
:1025D000DFE811F08E000800E0008B00E000E00072
:1025E000E0000A004FF001080022009259494346DA
:1025F000FB2208F01FF847B994F8C1100120FFF73B
:1026000045FA0746002800F0998009F065FB01278C
:102610009DF80F307BBBB9F1000F08D094F824303F
:10262000002B59D1B4F809300133A4F809303EB376
:10263000B4F8053000220133A4F8053084F8C12035
:10264000454804F083FA049840B10FF088FDA16A70
:10265000002343720722013012F01DF8059B33B1AD
:10266000A16A00221A720C22059812F014F86FB9B0
:1026700006B0BDE8F08705A90220FFF7BFFECAE754
:10268000B4F807300133A4F80730D9E7FFF7BEF9F3
:1026900006B0BDE8F0872A7FC0F3C0039A42B14676
:1026A0007FF45EAF03F0CAFC00284AD0D4F82CA017
:1026B0009AF8003003F00303013B012B41D89AF84C
:1026C000012094F8C8309A423BD994F83D3043F049
:1026D000100384F83D3043E7B4F80530B4F8071030
:1026E0002A8B0B431343A2D09CE74FF003087BE7F0
:1026F0004FF0000878E708F0DBF8238E42E708F097
:102700009DF808F07FF8D4F82CA09AF80110002862
:102710007FF4E1AE002942D09AF800302A7FC3F35B
:10272000C0039A425DD089B2A4F85810D4F8C4000E
:102730000FF097FCD4F82CA0A063D4E6FFF754FA6E
:1027400066E70DF10F00FFF717F9D4F82CA007E7A3
:102750001011002070110020341100204FF0000AE9
:1027600089F815A002F01CFE00284AD0638E43F0C1
:10277000080363865146636B08209847D9F8803078
:102780000133C9F88030D9F8843043F10003C9F827
:102790008430CDE640F2B2310620FEF7EDF9A4F820
:1027A00058109EE689F816301946638E43F01003E0
:1027B00063861020636B9847B5E6D4F8BC0004A983
:1027C0000FF0E6FBC0B1D9F8803094F82410013343
:1027D000C9F88030D9F8843043F10003C9F8843057
:1027E00098E6012384F83E30FFF710F940E74FF4F4
:1027F0009D612720FEF7C0F94FF479712720FEF77D
:10280000BBF940F2FB312720FEF7B6F9211B00008F
:1028100081240000F91D0000791A0000F0B583B092
:102820000023044601A8019309F024FF019B03F053
:102830000303002B0BBF182522250F2619260CBFDA
:1028400000270A270EF0BEFC38B1204612F0DCFF4C
:1028500070B905F1610003B0F0BD0EF00FFC002867
:102860000CBF3D463546204612F0CEFF0028F0D082
:10287000204612F0AFFF18B105F15A0003B0F0BDC9
:10288000204612F0ABFF0028F6D105F15000E2E738
:1028900008B54FF452710620FEF76EF92DE9F047A6
:1028A000002800F0DA800446082900F2CB80DFE837
:1028B00001F091A92424A5C91F9CC500014620460A
:1028C00012F005FFD4F83C3100F1F7059D4240F2CB
:1028D000BD80E81A322838BF322003210DF028FCD1
:1028E000C4F83C510646204612F0AFFF002E7AD0C5
:1028F0002046BDE8F04712F0ACBFFFF78FFFB4F8F9
:102900003231A4F840010022062B84F8382184F8E3
:10291000432100F28C800133A4F8323104F59C7518
:1029200028460CF0BFFC002800F09B8094F858313A
:1029300003F0FF01002B72D1D4E954026FF0004381
:102940009A4208BFB0F1FF3F12D02046D4E9526747
:1029500012F0BDFED4F85031D4F854219B1B00F185
:10296000F70062EB07021B1A62F10002002A53DB38
:1029700094F8100129460CF0ABFD00287BD0D4F868
:102980004851D4F82871D4F84C61D4F82C81AF4266
:1029900078EB060327D2204612F0E4FE50EA01034A
:1029A00081468A461FD0E81B4A4666EB080153461B
:1029B0000EF0CAF9D4E94A3209FB01F100FB0A1111
:1029C000A9FB009013EB0903014441EB0201C4E9A8
:1029D0004A3108E006F09AF8D4F83C01E7380DF0E7
:1029E000FDFA002842D0BDE8F08790F810010CF005
:1029F00025FC002384F83031BDE8F087BDE8F047BE
:102A000009F07EB912F0EEFE00283FF457AF2046E1
:102A1000BDE8F04712F019BF204606F07FF894F8A1
:102A200010010CF00BFC002384F83031A7E7D4F838
:102A3000143173B1012384F842316FE7F221302061
:102A4000FEF79AF8F6213020FEF796F8C4F83C51CC
:102A5000DDE7022384F8423160E7D2213020FEF71F
:102A60008BF840F29F613020FEF786F840F281211A
:102A70003020FEF781F840F2A3613020FEF77CF8A9
:102A80002DE9F04F04468BB00020029394F87D307E
:102A9000069017460E46059310F021FF94F8F12298
:102AA0000B2A00F28583B34B33F8125094F8C720F9
:102AB0000392284487F0010285B204922FB3B4F840
:102AC00080A3B4F8C090A6EB0A0A0FFA8AFAA6EB24
:102AD0000909BAF1000F0FFA89F904F55678C0F226
:102AE000D581A54ADDF808B0127802F0FF07002A68
:102AF00040F0DD8194F83C33032B00F26A83DFE879
:102B000013F03F010401A2003A0094F83C23032A89
:102B1000D5D1039A0E2AD2D1B4F8CC23B242CED169
:102B2000B4F80E13B4F882230A44C4F83823D4F856
:102B30004423C4F83023E269C4F83423204607F064
:102B400075FBD4F8D423E169914205D004F1280043
:102B500013F0BCF9D4F8D423E261D4F8D023E263B3
:102B6000B4F8CE23A4F84020D4F8D823626202221D
:102B700084F83C23A3E7E569029B05FB0AF2002BDE
:102B800040F0318294F85333002B00F0DC827A4B12
:102B90005868D4F84433EB1AA3F5AD75D4F87833FC
:102BA000D71B854228BF05460697DF19D4F87C332A
:102BB000C4F8085343F10003C4F86C33002384F8CD
:102BC00058337423A4F86033C4F8687304F14400E4
:102BD00011F0F4FDD4E9DA230544C4E9DE23C4F896
:102BE0005C53A4F8806306F095FC20B1D4F85C3304
:102BF0001E33C4F85C33B4F8F812039A8E1B00231A
:102C000036B29E4284F86233C4BF022384F8623332
:102C10000E2A029A00F06182002A40F0618294F844
:102C20003C33002B40F07D8294F8840341460CF045
:102C30004FFC002800F0BE82049B84F85033002033
:102C40000BB0BDE8F08FE36BD4F834032946184489
:102C50000AF0E8FB2946C4F84003E069474D0AF052
:102C6000E1FBE26994F87D9041F64B539A4298BF9C
:102C70000230C4F84403484609F0D0FB00F55F4039
:102C800019F00C0F00F14100A5FB003014BF282102
:102C9000002101EB90118031204611F027FEB4F89D
:102CA0000E33002B00F07681D4F83433E26BD4F885
:102CB000405313445B1B0693D4F83033D4F83823C5
:102CC00094F87DA002FB0355B4F8403030351AF07B
:102CD0000C0F03EB450540F05481504609F09EFB74
:102CE000264B00F52340A130A3FB00304FEA90199A
:102CF000504609F08BFB4D441F4B069A2844586000
:102D00000123E56984F83C3343E7D4F84403E269DE
:102D1000D4F84033D4F83813B4F80E53121A0AFB1F
:102D200002F20692D4F8302394F87DA03033A944FF
:102D300002FB0133C943B4F84050894400FB093019
:102D40001AF00C0F05EB400540F02181504609F0C8
:102D500065FB0A4B00F52340A130A3FB00304FEA8E
:102D60009019504609F052FB4D44034B069A2844F3
:102D7000586089E0E89E0300DC110020D34D62100A
:102D800094F87D1094F80603DFF828A311F045F8B5
:102D90008146E06B294648440AF044FB2946C4F8C2
:102DA0004003E0690AF03EFBE26941F64B539A4268
:102DB00098BF0230C4F8440307A908A808F094FF9C
:102DC000079B0093D4E9DE01DDE908230DF034FC14
:102DD00094F87D3005930546184609F01FFB059BC6
:102DE00000F55F4013F00C0F00F1410014BF2821E3
:102DF0000021AAFB003001EB90118031204611F038
:102E000075FDD4F88833E26B94F87D000693059243
:102E100009F004FB4AF2A13B00EB0B03AAFB0331D0
:102E2000069B059AD4F84003203B13441B1A4B44DD
:102E30005B1BA3EB9113069394F87D30B4F840909C
:102E400000F1300513F00C0F4FEA450509F1220996
:102E500040F09A801846059309F0E0FA8344AAFBF3
:102E60000B3A059B4FEA9A1A184609F0CFFA4D44DF
:102E7000914B069A554428445860D4F88833D31AA5
:102E8000B3F5D87F40F29B81E56982E6002284F8A1
:102E90005323894AD4E9DC011278C4E9DE01CA4629
:102EA0004FF0010B02F0FF07002A3FF423AE0AF0B7
:102EB00063FB074600283FF41DAEB4F82423012A23
:102EC00040F2F58094F83C23022A00F0F08094F858
:102ED0005223002A40F0EB80E06941F64B57B8429C
:102EE00040F2438194F8F1220B2A00F26181734B86
:102EF00033F8125094F83C3305F5C865012BADB298
:102F000040F0378194F8CA30032B40F04681D4F862
:102F10003403E76B074429460AF084FA034638462F
:102F2000D4F83073C4F83033DB1BD4F83873294637
:102F300003FB07F70AF076FAD4F84033C4F84003ED
:102F4000C01A07442946E0690AF06CFAE36941F6C1
:102F50004B529342B4F80E33D4F838234B446FEA03
:102F60000202A3EB0A031344D4F8442398BF0230AF
:102F7000C4F84403801A00FB0377012384F852331A
:102F8000B8E54FF06509B3E64FF0650A6CE74FF01E
:102F90006509E6E6029B002B3FF486AE94F87DB00F
:102FA000D4F83423E36B584602EB030909F036FAF0
:102FB000D4F88C338246A9F1200958469944D4F8B4
:102FC00040B309F023FA0AF5234AA9EB0B090AF1E9
:102FD000A10AA9EB0009A5FB0A35A9EB95150695F1
:102FE000D4F8405368E6B4F80E33002B7FF4CAAD32
:102FF00084F85333D4F8441301FB1A2A94F8C620FA
:10300000CDF818A0262A5BD094F8C720262A57D0DE
:10301000BBF1000F27D033BBD4F88CB3BBF1000F4A
:1030200000F0D28094F87D0010F00C0F40F09B80EF
:1030300009F0F4F91F4DD4F88CB300F52340A1300A
:10304000A5FB0035AD0994F87D00103509F0DEF9D7
:10305000AAF1100A0AEB0B02551B2D1AB4F80E3315
:10306000D4F844130695059803EB090B01FB0BFB01
:103070000BF1300B10F00C0F4FEA4B0B61D109F044
:10308000CDF90C4D00F52340A130A5FB003085099A
:10309000059809F0BBF9084B054405EB0B00E56901
:1030A000586041F64B539D4250D9069A71E500276E
:1030B00020E500BFD34D6210DC110020E89E030024
:1030C000B4F8CC23B21A1204A2D4059894F8CF23F2
:1030D000002A18BF104605909AE7002A3FF4A4ADD5
:1030E000B4F82423D2B1B4F8260394F8281300FBD3
:1030F00001118A4200F101007FF796AD002B3FF4E9
:1031000093AD002384F86233A4F8260302F09CFFF9
:1031100000F00700013084F8280385E5A4F8262391
:1031200082E5E169D4F844334046C91A10F01AFE2A
:1031300080B200283FF478AD149BC3B11880012001
:103140007EE56525A4E7B4F80E3353E7234A284605
:1031500006AB594610F07FFE214B84F85303069AC4
:103160005868E56915E5752570E71746C2E4012042
:1031700066E529460AF056F9E369BB42B4F80E73D6
:10318000D4F8443398BF02304F44A7EB0A07C4F881
:103190004403C01A00FB07F7EFE694F87D1094F89B
:1031A0000603E76B10F039FE0744D4F83403B2E6A7
:1031B000FFF76EFB40F2A3513020FDF7DDFC40F23B
:1031C000F2413020FDF7D8FC40F244513020FDF7A9
:1031D000D3FC40F259513020FDF7CEFCE011002025
:1031E000DC1100202DE9F04385B0002800F05B8160
:1031F0000446082900F23D81DFE811F08900E9006A
:103200000900090071003B0176007E00370113F0D0
:103210009FF9D4E9DC23801A61EB0301012871F1E5
:103220000003C0F24E816FF00102002382428B4105
:10323000C0F24281E3690BB1B0FBF3F394F8C7200D
:103240000E2A00F00B81B4F8C010B4F84E230B44E2
:103250009BB2D11A090454BF531C01339BB2A4F88A
:103260004E3394F85133B4F84E1323B9B4F8FC320A
:103270008B4200F00B81B4F8FC20B4F8C030B4F8F5
:10328000FA001344013BB4F882231B1A9EB2531C6C
:10329000721A1204A4F8823300F1B4800DF10E0505
:1032A000002300951A462046FFF7EAFB002840F06D
:1032B0009380D4F884303BB3B4F8F620B4F84E339E
:1032C0009B1A1BB2002B1FDDB4F888100B44013B86
:1032D000B3FBF1F313FB0123A4F8F63014E005B0BF
:1032E000BDE8F04308F00CBD01200AF065F805B018
:1032F000BDE8F043FFF766B890F83C33042B40F08C
:10330000E580002380F83C3305B0BDE8F08390F8F9
:1033100050330022C0F88C23002B00F08E80B0F8D0
:103320004E23B0F8C0309A4200F0B580D31AA0F80E
:10333000FE32A0F8C020D4E9DA232046C4E9DC2319
:1033400006F052FE94F80333002BDDD094F87D2074
:10335000E569D4F84433DFF87C8112F00C0F14BF18
:103360004FF4F0794FF4DC799D4288BFED1A98F85C
:10337000083098BF0025002B7FD004F14400D4F81A
:10338000087311F01BFA074402200CF081FEED1BBC
:1033900025EAE575854228BF0546022128460CF03E
:1033A000C7FE00B92F444A463946204611F086FA36
:1033B000E269D4F80833C8F80C00D0180CF00EFEFF
:1033C0000028A1D140F2AA313020FDF7D5FB05B08D
:1033D000BDE8F04312F0ECBB012868D1B4F84E13FD
:1033E000B4F8F8228B1A13F4004FBDF80E301944CC
:1033F00089B2A6EB01032CD11BB2002BA4F84E130B
:10340000BFF64EAF94F8CA303349002B0CBF3E23B1
:10341000082384F8E93004F1E00011F048F920466F
:1034200012F0C8FB002384F83C3394F884030BF0BB
:1034300005FF202384F8843366E7B0F84C33B0F8F6
:10344000C010B0F84C23A0F8C0205B1AA0F8FE32E0
:1034500071E71B0416D4A4F84E1321E7B4F84E13F9
:10346000013189B2A4F84E1305E7C6213020FDF7DB
:1034700083FBCA213020FDF77FFB636C9D4228BF90
:103480001D467AE7B31A1BB21146B6E7013189B27D
:10349000A4F84E13EFE6B0F8FC32A0F8C0309B1A47
:1034A000A0F8FE3247E79C213020FDF765FB4FF482
:1034B000CC613020FDF760FB40F221613020FDF748
:1034C0005BFB4FF4C4613020FDF756FBC021302078
:1034D000FDF752FBDC110020F16500002DE9F047FB
:1034E0000026054680F81861D0F814010127D5E9B7
:1034F000528982B080F806238A4685F830613946C1
:1035000085F8317102F0A4F9D5F81441C4E9DC89D9
:1035100095F8103184F88433C4E9DE89C4F888A3AF
:1035200084F83C63A4F88063334600963246314603
:103530002046FFF7A5FAC8B984F83C73C4F83803ED
:10354000C4F83003A4F84E03A4F84C0384F85103E4
:10355000B4F8C030A4F88203013BA4F8C03007F0EF
:1035600005FF02B0BDE8F0470BF096BC40F2212108
:103570003020FDF701FB00BFD0F81401704700BFF9
:103580002DE9F04385B000230322CDE90033012665
:103590008DF806206846FDF7DDFF044620BB009D40
:1035A00095F83031002BF5D085F858610121284677
:1035B00012F051F995F83031002BEBD095F810014D
:1035C0000CF092FA95F810010CF0DCFE95F8100161
:1035D0000BF034FE00283CD085F830416846FDF7FA
:1035E000B9FF04460028DAD0DFF87C80012388F890
:1035F0001030002502264FF6FF771AE0029BE3B158
:1036000093F88423202A18D01888B8421BD00221AE
:10361000FDF766FF814608B390F884030CF0B2FE14
:1036200099F8840389F83C430BF008FE202389F8BD
:103630008433CDE902558DF80E6002A8FDF78AFFAC
:1036400004460028DAD0002088F8100005B0BDE854
:10365000F08340F20D213020FDF78EFA40F229115F
:103660003020FDF789FA00BFDC110020054B002255
:10367000012142F210701A72588219701A74FFF701
:103680007FBF00BFDC11002090F83031002B40F0EC
:10369000A3802DE9F04104460F46014656481546E1
:1036A00003F0FF080BF09EFD202806466DD0414632
:1036B000502204F588700DF05DFC012384F8106140
:1036C000C4F8147184F8303137B102F0D5FC00F041
:1036D0000700013087F828032046FFF79FF80027EE
:1036E0000223A4F84001A4F8423184F8387109F0AB
:1036F000C9FEB4F840619D3606442046B6B212F0C9
:1037000071F8002844D010F0EAF800F5CD6189B2D4
:10371000284609F087FE2844C4F83C0112F018FF3F
:10372000301841F100010126C4F84801C4F84C11D9
:1037300084F81861E784204612F06AF8002843D024
:103740003146204611F0C3FFA5F2F3452D1AC4F807
:103750001C514FF0FF326FF00043C4E9542394F83A
:10376000100104F59C710BF0B3FE00283ED0D4E9A3
:10377000522300252046C4E94A23A4F832512946A1
:1037800012F069F82846BDE8F0810C20BDE8F08110
:103790000146204611F09BFF184FF730C4F83C015A
:1037A000788A08B1E08CC8B9064412F0D1FE361808
:1037B00041F10001C4E95261002DCAD0AE1941F1B6
:1037C0000001C4E95461CAE7304612F02DF9F73D13
:1037D0002D1AC4F81C51BCE70C20704702F04CFCB9
:1037E0007B8AB0FBF3F202FB1300DDE740F2EF113E
:1037F0003020FDF7C1F900BF9D280000DC1100203A
:1038000090F830310BB90020704710B50121044603
:1038100080F8581112F01FF894F830310BB90020DD
:1038200010BD94F810010CF05FF994F810010CF041
:10383000A9FD94F810010BF001FD20B1002384F8DC
:103840003031002010BD40F20D213020FDF794F9F9
:10385000014B1872704700BFDC11002090F858210E
:1038600082B910B502F0FF0490F8182112B90122B4
:10387000104610BDD0E947319942F9D905F04EF90B
:103880002246F5E700221046704700BF10B50446F7
:1038900007F010FA074BDA68824208D3E16941F673
:1038A0004B52914203D9187C80F0010010BD0020DA
:1038B00010BD00BFDC11002008B54FF4FF7111F0FE
:1038C00028F8B0F5296F28BF4FF4296080B208BDF1
:1038D00090F80333002B66D170B503F0FF0590F824
:1038E0003C33032B84B0044601D004B070BD12F009
:1038F0002FFED4E9DC23801A61EB0301012871F16A
:103900000003F2DB6FF00103834275EB01034DDB33
:10391000E369B4F8C020002B46D0B0FBF3F080B2CE
:10392000531C184480B2A4F84C03B4F84C23B4F8E8
:10393000FC329B1A1BB2002BD7DD94F884030CF0E9
:10394000D3F80028D1D0FF2384F85133B4F8FC30E9
:10395000B4F8C050B4F8FA201D44013DAD1AB4F8D3
:103960004C33ADB2EB1A1A04BFD40DF10E06B4F805
:103970004C130096002389B201222046FFF780F8FD
:103980000028B2D0012816D1B4F84C33BDF80E206F
:1039900012FA83F39BB2A4F84C33B4F84C33EB1A0D
:1039A0001B04E4D5A1E770471846B9E740F2D751A8
:1039B0003020FDF7E1F84FF4C2613020FDF7DCF86C
:1039C0002DE9F047044682B0052900F2C180DFE806
:1039D00001F03D1603131C23042384F83C3307F045
:1039E000C5FC0BF059FAB4F8C020A4F84E2300230C
:1039F000A4F8823384F8513302B0BDE8F087032382
:103A000080F83C3302B0BDE8F08707F04DF9C4F808
:103A10008C0302B0BDE8F08790F87D50284608F08E
:103A2000FDFC4E4900F55F4015F00C0F00F1410020
:103A3000A1FB003014BF2821002101EB901180313F
:103A4000204602B0BDE8F04710F050BFD0F88C33EC
:103A50009BB9434B1B7C03F0FF02002BBCD1B4F895
:103A6000FC12009201232046FFF70AF80028B6D086
:103A700040F2DA613020FDF77FF890F85233002BE6
:103A8000E7D090F83C33032BE3D190F87D900FF012
:103A900026FF94F8F1320B2B58D8324AD4F88C53C5
:103AA00032F81330C61803F5C86348469FB208F0D1
:103AB000ADFC19F00C0FA5EB0008B6B248463CD19E
:103AC00008F0ACFCDFF894A0D4F8085300F2E73318
:103AD000AAFB03234846A8EB931808F097FC2D1A7D
:103AE000484608F09BFC00F52343A133AAFB0323BF
:103AF0009B09EB1A5A08603B293206FB03F3B3FB20
:103B0000F7F36033A2EB530141454FEA530302D868
:103B10001344434501D209F01BFFE069314609F027
:103B200081FCE26941F64B539A4298BF0230002370
:103B3000C4F8440384F852338BE7D4F8085308F0F0
:103B400065FCA8F13C082D1A6523D2E7FEF7A0FE1C
:103B500040F26E713020FDF70FF800BFD34D6210B8
:103B6000DC110020E89E0300012A70B5064609D04A
:103B7000022A14460D461ED04AB14FF4F36130209C
:103B8000FCF7FAFF07F096F8C6F8880370BD07F057
:103B900091F8224601462846FFF7A0FC0F4995F808
:103BA0001001324609F0DCFB0028EFD140F28171B0
:103BB0003020FCF7E1FFD0F8881301222846FFF7F8
:103BC0008DFC064995F81001324609F0C9FB002822
:103BD000DCD140F292713020FCF7CEFFE5310000DD
:103BE000F8B5044651B1012962D1002380F818319B
:103BF00007F0BCFBBDE8F8400BF04EB9C58C002DBA
:103C00004ED12046D4E94A7611F0ACFD401941F17D
:103C10000001C01946EB010602230022C4E9520646
:103C2000A4F8423184F838212046FEF7F7FDD4E9A4
:103C3000525694F85831A4F84001C4E94A5603F0AA
:103C4000FF017BB9D4E954026FF000439A4208BFE8
:103C5000B0F1FF3F0FD194F8100104F59C710BF007
:103C600037FC50B30023A4F8323107F07FFBBDE8E6
:103C7000F8400BF011B9204611F029FDD4F850316D
:103C8000D4F854215B1B00F1F70062EB06021B1A0B
:103C900062F10002002ADEDA204604F03FFFE1E78D
:103CA00002F0D2F9E58CB0FBF5F303FB1505A8E7AC
:103CB0004FF4F5613020FCF75FFF40F2FA613020ED
:103CC000FCF75AFF90F83001704700BF014B588253
:103CD000704700BFDC11002010B582B00023012224
:103CE0000193044600938DF8062002E0009B83F8C0
:103CF00054406846FDF72EFC0028F7D002B010BDF6
:103D000008B501210020FDF7EBFB10B190F954003C
:103D100008BD40F621013220FCF72EFF90F850300C
:103D2000032B0ED0013B012B01D90020704790F8E6
:103D3000510000F0FD00A0F10100B0FA80F0400950
:103D4000704790F85200A0F10100B0FA80F04009ED
:103D5000704700BF253270B592B205460C461E462C
:103D60000EF0E6FA45B1054A0023156082F8484096
:103D700082F849601471536470BD00BFFC110020CB
:103D8000014B1870704700BF1100002090F87000C0
:103D9000003818BF012070472DE9F04782B0064671
:103DA0000C4615461F460DF00DFA002800F09E80C7
:103DB0004FF096094FF08C08002301A8019308F0FA
:103DC00059FC019B13F0030F18BFC84694F8C69026
:103DD000002F40F0988094F81833032B00F20181F3
:103DE000DFE803F043027602D4F81CA0554600F049
:103DF000CBF9002860D000200346D4F8F022AD189B
:103E0000D4F8F42242F100022D1843EB0203C4E976
:103E1000BC53C6E904530025A6F80880357094F811
:103E2000C63003F0FD020C2A59D0262B57D020466D
:103E300011F0F3FE002800F0C88094F81833012B2D
:103E4000DAB216BF0223B272B3720023F37204F126
:103E5000440010F0B3FC706027B1A9F10E09B9F16C
:103E6000010F55D802B0BDE8F087002D00F0AF80FB
:103E700094F87C205D4B94F87DA033F81250012318
:103E800084F81833504608F0C9FA05F29D75584970
:103E90001AF00C0F0544A1FB053514BF28210021A1
:103EA00001EB951182312046002510F01FFDAA4636
:103EB00000F06AF900289ED1B4F91403022110F031
:103EC00032FDB4F814331B1AA4F81433C31794E763
:103ED000D4F820A3032384F81833554687E72046F7
:103EE00011F09BFE01250023B372AEE70DF0C6F87A
:103EF00000280BBF4FF07E094FF08D094FF074087A
:103F00004FF0830858E70121204606F019FA62E7CE
:103F1000514630460FF026FF87B2204611F07DFE55
:103F20008046B5B9874214D3B572D4F8F0320AFB93
:103F300000F29B18D4F8F422336142F1000272615E
:103F4000BAF1000F48D0514630460FF00BFF404405
:103F500087B23946204606F0F3F900F015F9E0B1D2
:103F6000D6E90430D4F88420C4E9BC30002A3FF4F8
:103F700079AFB4F8F620B4F8C0309B1A1BB2002B0E
:103F80007FF770AFB4F888100B44013BB3FBF1F33B
:103F900013FB0123A4F8F63064E77F00B7F5803FF8
:103FA000B4BFB9B24FF6FF71B4F9140310F0BBFC03
:103FB000B4F814233369121AA4F814237269C318CD
:103FC00042EBE07033617061CCE705468BE740F26D
:103FD0003B213520FCF7D0FD40F2B5213520FCF720
:103FE000CBFD40F273213520FCF7C6FD689F03002E
:103FF000D34D6210014B5870704700BF541200201F
:1040000070B582B004460DF0DDF8C8B14FF4E57527
:104010004FF4E07601A80023019308F02BFB019BED
:1040200013F0030F0CBF31462946204610F071FCF7
:10403000B0F5296F28BF4FF4296080B202B070BD7F
:104040000DF01CF8002840F2C11540F2B71604BF6D
:104050004FF4D9754FF4D476DCE700BF70B5044651
:1040600086B0042900F28580DFE801F0670D0312B5
:104070004900042384F8183307F078F906B0BDE846
:1040800070400AF009BF032380F8183306B070BDF2
:10409000C269D0F84033C0F820239A4204D02830B7
:1040A00011F014FFD4F84033D4F83C2394F87C008A
:1040B00094F87D603149E263B4F83823A4F84020D5
:1040C000D4F84423E36131F810506262304608F0BE
:1040D000A5F905F29D752A4916F00C0F0544A1FBC0
:1040E000053514BF2821002101EB951182312046AE
:1040F00010F0FCFB022384F8183306B070BD90F872
:104100007D6090F87C201D4B304633F8125008F04B
:1041100085F905F29D751A4916F00C0F0544A1FBAF
:10412000053514BF2821002101EB9511823120466D
:1041300006B0BDE8704010F0D9BB124B1A7802F0FF
:10414000FF03002A95D1014601226846FFF724FEAD
:1041500094F8190369460BF0BBF928B1B4F8C030E4
:104160000133A4F8C03087E740F2E3213520FCF7A3
:1041700003FD40F23E313520FCF7FEFC689F030052
:10418000D34D621054120020014B1879704700BFC4
:104190005C12002008B523211A20FCF7EDFC00BFBB
:1041A00038B505460C4691F8FB3113B191F805324C
:1041B0008BB9002D50D02B7873B194F8F0318BB3BC
:1041C00004F1B00011F0B5FE00230022C4E9682319
:1041D0000023C4F8A83138BD94F8F2316BB9B4F8B3
:1041E000AC010221FDF77CF938B104F2152100F58C
:1041F000AE700EF07DF800283ED0B4F8B001092171
:10420000FDF784F9002844D16B6F002BE3D1B4F89B
:10421000AE010821FDF77AF90028DCD060211A20D0
:10422000FCF7AAFC94F8F23103F0FF017BB9B4F873
:10423000AC01FDF755F950B104F2152100F5AE704F
:104240000EF056F818B92B211A20FCF795FC4FF602
:10425000FF73A4F8AC31B3E794F8F23173B9B4F852
:10426000AC010221FDF73CF940B104F2152100F543
:10427000AE700EF03DF808B9FFF78CFFB4F8B0014E
:104280000921FDF743F90028A5D04E211A20FCF79B
:1042900073FC53211A20FCF76FFC00BF90F8F23139
:1042A00023B9B0F8AC010221FDF71AB9002070471C
:1042B00038B550B390F8C7302A2B04461FD14AB9FD
:1042C0002B2380F8C73094F90831002BA8BF0020B9
:1042D00017DB38BD1F230D4680F8522180F853317B
:1042E000322380F8C7300029EDD0B1F8AE010821A3
:1042F000FDF7F6F868B12946FFF752FFE3E70C2017
:1043000038BDDA211A20FCF737FCB3211A20FCF75C
:1043100033FCD5211A20FCF72FFC00BFFFF7C8BFE4
:10432000014B1868704700BFA000002038B50D2170
:104330000546FDF797F8A0B1044641F2302200216E
:104340000CF018FE41F201420123A4F8A42084F8E5
:10435000F230FFF7E5FFC4F81841C4F820012580CA
:1043600038BD3A215320FCF707FC00BFF0B5070C1D
:10437000A7F5AA42144B543A012A03EA90231FD905
:1043800027F4004042F6AA22801A18BF012000221A
:10439000162116461F2487EA060562EA050501353F
:1043A00010D0DD03ADB245EA5606E503ADB20139E2
:1043B00045EA52024FEA53034FEA5404EBD1F0BDF1
:1043C0000020E4E70020FAE7E0FF3F00F8B51E46D2
:1043D0008B1F9BB240F67A45AB4207461046BDF8AC
:1043E00018203AD8841FA4B2AC428CBF0024012408
:1043F0002546A7BB1C4B1B796BB15CB96FF45065AC
:104400004B19062B06D86FF45063C418062C8CBFCA
:10441000002401242546F5B1814223D8B6F5FA7F60
:1044200020D2A2F10A039BB240F676418B4219D802
:104430000EF0CBF8013642F21073B6B25A4346433F
:10444000B2EB460F0ED9BDF81C50BDF820008542D6
:104450008CBF002501252846F8BD0024C8E797F841
:104460008130C9E70025F6E730130020304BF0B566
:10447000B0F87070B0F86E605D880C4611461A880E
:10448000974228BF1746964228BF16461B2E85B076
:104490002ED0B5F5A47F2DD040F648039D4201AA49
:1044A00028BF1D460EF0BAF8BDF80A309F4228BF5B
:1044B0001F46BDF80C30E780AB4228BF2B46238156
:1044C000BDF806309E4228BF1E46BDF80830668003
:1044D0009D4228BF1D46A580FF232370E3881B3B18
:1044E0009BB2E02B08D94FF4B7613920FCF744FBAD
:1044F0001B2FCED105B0F0BD63881B3B9BB2E02BD8
:1045000002D940F2BA51F0E72389A3F5A4739BB214
:1045100040F64812934202D940F2BC51E5E7A38825
:10452000A3F5A4739BB29342E4D940F2BE51DCE7F9
:104530003013002010B503210020FCF7D1FF044602
:1045400070B90321FCF78EFF044620B940F21B31FD
:104550003920FCF711FB034B93F9281011F06DF88B
:10456000204610BD30130020F7B5114B9C7EDD7E38
:104570009F8B064614B900F053FD0446A5B900F020
:104580004FFD054614B9092003B0F0BD0028FAD04C
:10459000304601A98DF804408DF80550ADF806703D
:1045A0000FF037FC0020EFE7002CF1D1EBE700BF64
:1045B0009417002008B50FF0FAFA01F053F800F054
:1045C0003DFD10F066F801F053FA02F03DFB01F0FA
:1045D00083FA012000F0F6FC0D4A0E490E481160E6
:1045E00000231B2153839180D383138413760B4ABA
:1045F0008261838080F8293001F1A47101228375E2
:1046000001600277BDE808401E3011F065BC00BFB4
:104610009417002003021B0030130020F90000074C
:10462000044B41F64C521B21C3E9022219745A6112
:10463000FFF7C0BF941700207FB5364DAB68044626
:1046400040F8443FFFF738F9064600F0E3FCA4F8D1
:104650004E60314E2B7C84F84C3010F0200F3368C4
:104660001DBFAA886988A4F86E101B2208BFA4F891
:104670006E20A4F870205BB1012302A88DF80830E9
:10468000039411F0D6FB336894F980102088984782
:10469000224B1A79002A14BF0122002203F10803D9
:1046A00084F881200FCB04F18C0686E80F0041F6D8
:1046B0004C5318BF4FF47A73E3612046FFF754FF61
:1046C000064648B120880221FCF720FFF0B140F2F5
:1046D0007E513920FCF750FA04F1280011F0F6FB66
:1046E0006B7801932B7800936A88AB8804F11801EA
:1046F00004F11400FCF766FF636913B940F28F51AF
:10470000E7E7A3691BB94FF4B261E2E70926304637
:1047100004B070BD94170020A400002030130020C6
:104720002DE9F34105460E4610F0CCFF002800F0BD
:10473000AE80284611F056F830B1B6F80130013B92
:104740007F2B01D9122404E0284611F04FF820B93C
:104750000C24204602B0BDE8F0812846FFF7B2FAEB
:104760000028F5D1284610F052FF80460028EFD1EE
:10477000284603F039FF0028E4D0B6F80170F1783C
:1047800042F2107328465F4311F016F80421307886
:10479000FCF7A6FE062104463078FCF7A1FE002CAB
:1047A00077D038B141F2F4713920FCF7E5F990F88F
:1047B000BD800446404E3368002B6CD04034204608
:1047C00011F07CFA002866D0204611F06BFA002820
:1047D00061D1B8F1000F08D0384B20461B689847CC
:1047E000002858D041F60801DEE7354933684969A9
:1047F00042462046984700284DD041F60D01D3E7A8
:10480000284610F0EFFF40B902210DF10600FCF739
:10481000F1FD064658B90D249BE7284610F0F4FF39
:104820000028F1D1274B1B79002BEDD18AE700211D
:1048300001F00EF8BDF8063033802846314610F0FE
:10484000F8FF284610F0E0FFA0B9284610F0E6FF78
:1048500001463046FFF7F0FE044600287FF479AFAA
:104860003A4631462846FEF70FFF044620B141F68E
:10487000390199E70121ECE7124B1B6B002B3FF448
:1048800068AF024606F5B1713046984761E74224A9
:104890005FE700288BD1284610F09CFF01460028D6
:1048A000AED13A462846FEF7EFFE044600283FF414
:1048B00050AF41F6160177E7B0000020AC000020B1
:1048C0009417002030130020B0F90020F8B514B27E
:1048D00092B202F5A0639BB2B3F5206F34D8B0F961
:1048E00002301DB29BB203F5A06189B2B1F5206F11
:1048F0002AD802F2F64189B240F2BE50814225D850
:1049000003F2F64189B2814220D8002CC4BF09329B
:1049100014B2002DC4BF09331DB20A2094FBF0F479
:1049200001F0AEF867B206460A21384695FBF1F170
:1049300049B201F097F8074B1B684BB1A01B40B27E
:1049400008B198470020F8BD3020FCE71120FAE7B5
:104950001846F8E7A8000020034B5A8802801B780D
:1049600083700020704700BF941700207FB58378C4
:104970001A2B064609D8042B05D9012202FA03F3A3
:10498000324A134205D1122519E0292B01D03B2BC5
:10499000F9D13088B0F5706FF5D269460FF055F94E
:1049A00080B968460DF009FE037803F0FF05B3B93E
:1049B000B3784370FF23037068460FF043FE284628
:1049C00004B070BD30880921FCF78AFD0446002838
:1049D0003AD0B0F8AC0102A90FF037F908B10C25B4
:1049E000EDE7B4F8AE010821FCF77AFD024620B9E4
:1049F00040F6D6013920FCF7BFF803781BB994F8CC
:104A0000C831032BEBD102A80DF0D7FD90F84A1066
:104A10000029E4D194F8F01101F0FF050029DED15E
:104A2000B4F8B011A0F84C1094F8B41180F84E10FE
:104A3000127D80F84F20B27880F8502084F8F02161
:104A4000FF2280F84A20BAE70225B8E720003804A0
:104A50000188A1F11B039BB2E02B0CD84288A2F580
:104A6000A4739BB244F24810834204D8034B002045
:104A700019805A8070471220704700BF3013002001
:104A8000034B1A885B88028043800020704700BF78
:104A90003013002013B5008869460FF0D6F818B11E
:104AA0000224204602B010BD68460DF07AFF0028AF
:104AB000F6D068460DF081FD827C03460AB13A24A7
:104AC000EFE768460DF073FD90F86C2002F0FF04EC
:104AD000002AF4D190F86320920705D101229A743C
:104AE00068460FF0AFFDDCE70249022264300FF0A8
:104AF000E4FDD6E7D14E01002DE9FF410778EF2F05
:104B000004460D4601D912259CE0B0F80130ADF8FD
:104B10000C309DF80C30D8066CD4990603F00302D3
:104B200065D5002AEFD11A0703D503F06703012BDF
:104B3000E9D163781E0711D42179E278E07942EA5D
:104B40000122617942EA0142A17941EA0021207AF9
:104B500041EA00418A42D6D81F2AD4D9627A013A62
:104B6000062AD0D8A27A032ACDD813F0040102D1A4
:104B7000023A012A03D8E27A012AC4D811B9A27CE8
:104B8000032AC0D813F01001227D43D0012ABAD1E4
:104B9000237E012BB7D800294CD06378D80703D5E2
:104BA00000F0D2F900284CD06378227D03F0180180
:104BB000082959D1022A44D11B0709D4E279A379E3
:104BC00043EA0223227A43EA0243B3F5804F38D8FE
:104BD0001FFA87F803214046FCF782FC06460028AE
:104BE00048D0FFF76FF8002850D00C252AE0032AA0
:104BF00099D188E713F0600F85D103F00F0203F01D
:104C00000703052B95D0931E012B92D9002A7FF420
:104C10007AAF8EE7022A04D103F06F03092B7FF4E9
:104C200072AFA37D013B022B3FF66DAFE37D0F2BEF
:104C3000AED968E700F0F4F981070AD4237D022B8E
:104C400004D11125284604B0BDE8F081A37D022BD4
:104C5000F7D000F0E5F942079FD4237D032BF0D075
:104C6000A37D032B99D1ECE7022AA5D0A27E002ACE
:104C7000A2D0E6E703214046FCF7F4FB06460028F5
:104C800040D0214B93F9281010F0D7FC0021384672
:104C900010F0F2FF18BB304610F099FD2146287045
:104CA000E074304603F0F8FC637E0546002BC9D063
:104CB0000028C7D1F16C02466846FCF763FDF06C32
:104CC0002A4601210DF093FBF16C68460422FCF7A3
:104CD00059FDF06C2A4629460DF089FBB2E74030B9
:104CE00010F0ECFF0028D6D0637813F0330F7FF478
:104CF0000AAF3046A77D10F091FD0DF02AFD8742E6
:104D0000C9D072E707259DE73013002030B502793E
:104D1000042A8BB0034658D84488B4F5804F54D841
:104D20002B4810440021027AC578ADF8041042F0F7
:104D3000100242EA4502457B807C8DF80C1042EA65
:104D4000850242EAC00202F01F028DF80420BDF87D
:104D50000420ADF80D201A888DF80F208DF8124030
:104D6000120A240A8DF811108DF814108DF81020F5
:104D70008DF813405A7B8DF815205A798DF816203E
:104D80009A79D3F807008DF81720B3F80B209B7B96
:104D90008DF81E307F238DF81F30012306908DF88B
:104DA0002110ADF81C208DF820308DF8223003A89A
:104DB0008DF823108DF824108DF825108DF826100D
:104DC00001A9FFF799FE0BB030BD1220FBE700BF31
:104DD00002A0030013B50378044653B1002301A8D1
:104DE000019307F047FC019B9B0702D00C2002B007
:104DF00010BD024B22781A710020F8E73013002012
:104E00000278034672B1427862B142881A2A09D9FF
:104E100082881A2A06D9044A006810609B88938009
:104E2000002070471220704794170020024B026840
:104E30009A600020704700BF941700200378A3F108
:104E40000A02112A9DBF024A0020137412207047E3
:104E500094170020014B1876002070473013002073
:104E6000014B5876002070473013002008B505200C
:104E700000F0B4F805F014FA014B024A1A6308BDB9
:104E8000301300206D44000008B503F063FAFEF70C
:104E9000EDFBBDE80840014803F046BA641300206A
:104EA00008B50EF082FE064800F58471FDF732F871
:104EB00002200DF0F6F9BDE8084000200DF0F1B930
:104EC0006413002008B5074B012283F80A2203F07F
:104ED00049FA04F017FBFFF7E3FFBDE8084000F0D4
:104EE00035BF00BF6413002010B5064C064904F519
:104EF00003700EF0B0FC04F504700449BDE81040E6
:104F00000EF0A9BC64130020B4000020BC000020F7
:104F100010B5094C094904F503700EF09CFC04F52A
:104F2000047007490EF097FC04F505700549BDE8CB
:104F300010400EF090BC00BF64130020CC00002095
:104F4000D4000020C4000020014B93F80A027047EF
:104F50006413002038B5094C0D4600F0EFFED4F87C
:104F60000C02C4F804510EF06EFCFFF759FB01F07F
:104F70009BF8012384F8183238BD00BF6413002069
:104F8000014B93F8180270476413002010B50C4CC5
:104F9000D4F810020EF057FCD4F814020EF053FCB3
:104FA000FFF708FB202000F027F82F2000F024F85E
:104FB000262000F021F8002384F8183210BD00BF2D
:104FC00064130020014B83F819027047641300201A
:104FD000014B93F81902704764130020C208054979
:104FE000012300F0070003FA00F08B5C184388549B
:104FF000704700BF18000020C208054900F00700F4
:1050000001238340885C20EA03008854704700BF76
:1050100018000020014BD3E9000170471800002060
:10502000054B1868C0F3C022C0F30020400040EADE
:10503000820040F0010070471800002008B508F019
:105040001BFA084A002332F82310814205D302EBF1
:1050500083039B78044A137008BD01330C2BF2D1F3
:105060000023F7E758A003007E150020024B1878B4
:1050700000F00700704700BF7E15002010B544689F
:105080002388A4F80E3284F80D1294F87C000DF0F9
:1050900071FB84F8100294F87D000DF06BFB06495B
:1050A00084F81102022204F501700FF006FB0023C0
:1050B00084F86C3110BD00BFE33801004068064938
:1050C0000388A0F80032B0F87430A0F8023200F281
:1050D000F7100FF0ECBA00BFF93801002DE9F743E3
:1050E000456895F8C73095F8C680242B04460F46CE
:1050F0002CD1C73538460FF084FA00284DD03846F9
:105100000FF077FA814638460FF077FA01460EF035
:1051100048FC666848B396F87C30984225D096F8EB
:105120006C21012A0CBF96F86E2196F87820114266
:1051300033D0B8F1220F18D096F87520114214D14F
:1051400053B940F26D110620FBF716FDB8F1220F9E
:1051500040F0C480C635CDE7042B01D0042832D1FD
:10516000984294BF00200120B8B948460EF019FCBF
:1051700000284BD096F87D30834247D096F86C31AA
:10518000012B0CBF96F86F3196F8793019EA030FAE
:1051900014BF01230023002B38D1636893F86C21DE
:1051A000012A19D11E212046FFF768FFB8F1220F0E
:1051B00020D1FA786368182A83F8512110D040F280
:1051C0006D217E20C0E7082BCAD00828C8D098429D
:1051D0002CBF00200120C7E7002283F86C21E5E7FF
:1051E0000A2283F8C62093F80431002B3CD140F208
:1051F0007521E6E7002320462B700FF0C2FB3946ED
:10520000204603B0BDE8F0430FF0DFBB304601AAF3
:1052100039460EF0D3FB666880BB96F86C31012BE3
:1052200029D1B6F8C03096F87C10B6F8700106F5B2
:1052300073720EF02AFC0646C0B901462046FFF7FD
:105240001DFF2E70636803F1C702954202D1002250
:1052500083F8C720636803F1C70295424FF0000549
:1052600039D120460FF08DFB002038E063682822FA
:1052700083F8C620E6E786F86C01E3E738460FF0CE
:10528000BEF9A6F8CC036068B0F8CC33B0F8C02003
:10529000013B9B1A9BB247F6FD72934207D9282324
:1052A00080F8E9300F49E0300FF001FAD2E790F8CA
:1052B000C7300E2B02D00B3B012B01D82A23EFE77E
:1052C0009DF8043080F8CE339DF8053080F8CF3358
:1052D00026232B70BEE783F80451C5E7022003B0F4
:1052E000BDE8F083F1650000044B002283F8322012
:1052F0004FF6FF729A86DA861A877047801500206B
:10530000054B9A8E824201BF002283F832204FF66D
:10531000FF729A86704700BF80150020014BD88627
:10532000704700BF80150020094A0346908E4FF653
:10533000FF71884206D192F83210012905D01A6017
:10534000012070470020186070470020704700BFA0
:1053500080150020064B93F83220012A1FBF012040
:10536000DA8E83F832009A8608BF0020704700BFAB
:1053700080150020014B1887704700BF8015002062
:10538000064B0246198F988E884205D193F8320059
:1053900018B113600120704700207047801500206D
:1053A000094B998E1A8F914201D0002070474FF619
:1053B000FF729A8693F83220002AF6D0002283F8F2
:1053C00032200120704700BF80150020054B998EC8
:1053D0001A8F914203BF93F83200B0FA80F040096F
:1053E000012070478015002050B90A4A1346012059
:1053F00003F8010B0868C2F801008A889A80704798
:10540000012805D1034B0A689A608A88D8719A816D
:10541000704700BFBA15002048B90A4B187880B110
:10542000D3F80120B3F805300A608B80704701285B
:1054300006D1044BD87920B19A680A609B89F4E7B9
:1054400000207047BA15002020B9054B187800F0ED
:105450000100704701280ABF014B0020D879F6E708
:10546000BA150020F7B500228B888DF80600ADF83C
:10547000043008680C4B8DF80720019D1C7801460C
:1054800003F5AC73D0B2844201D8082009E0D3E917
:105490000076AE4208BF8F4203F1080302F1010219
:1054A000F0D103B0F0BD00BFC815002030B5094BE6
:1054B00001465C78002203F58173D0B2844201D8A2
:1054C000082005E013F8015B8D4202F10102F4D1DE
:1054D00030BD00BFC8150020F0B5254D95F89841A6
:1054E00089B0224605F2991168460BF0CBFC2146A3
:1054F00068460EF07BFB0446B8B300EB4001C9B22E
:1055000002A8FBF753FD601E95F8A161C0B201240B
:1055100095F8982105E0731CB3FBF2F102FB1133FF
:10552000DEB206F120030DEB030111F8203C002B45
:10553000F1D100EB400220326A4406EB46032B44D3
:1055400012F8187C83F8A27112F8177C12F8162C46
:1055500083F8A37183F8A42101F8204C0138AB191A
:10556000C0B2FF2883F89941D2D109B0F0BD00BF85
:10557000C815002070B5064688B00C46002A4FD0EA
:105580002A4A92F8A131D01890F8991121B94FF414
:1055900080712820FBF7F0FA03EB4301114401333B
:1055A00091F8A251E57091F8A35191F8A41161719D
:1055B0000021257180F8991192F89811B3FBF1F050
:1055C00001FB103382F8A13192F8C23123B9184996
:1055D00002F5DD700FF06EF8657905F03F0545F0D6
:1055E000400565710D22002168460BF0C3FCE3788D
:1055F0008DF80F3023798DF80E3004AA0423694604
:1056000030468DF80D500BF0A7F99DF81F30237030
:105610009DF81E3063709DF81D30A37008B070BDFA
:1056200003216018FBF7C2FCD6E700BFC8150020B5
:10563000D9540000044B5A78824286BF1B1893F855
:105640004A010020704700BFC8150020044B5A785B
:10565000824286BF1B1893F842010020704700BFAA
:10566000C8150020064B00224FF461711A8083F8A0
:10567000C32183F8C421A3F8C61183F8C22170475F
:10568000C8150020014B83F8C4017047C8150020DD
:10569000014BB3F8C6017047C815002030B50A4B5E
:1056A0005C7884420ED9184490F802012B3003EB49
:1056B000C004A5790D7053F830001060A388938062
:1056C000012030BD0020FCE7C81500200246074835
:1056D00010B590F8C34124B1417821B1023004F0F3
:1056E000FFFE204610BD0C46FBE700BFC81500209A
:1056F0002DE9F74F2F4C9A466378834280468946BE
:1057000056D9231893F8425185F00105F9B193F861
:105710004A31E3B945F002070135BAF1000F18D15B
:10572000FA070AD5062101FB084104EB081052468E
:1057300001F585718230FFF71DFFBB0734D504EBFF
:105740000810524649460230FFF714FF2CE02F465E
:10575000E3E794F8A1614FF0010B002DE0D0A3190D
:10576000019393F8991199B90092DAB100F06CFCA9
:1057700006EB46012144019B81F8A2014FEA102C5F
:10578000009A81F8A3C1000C81F8A40183F899B1B3
:1057900094F898310136B6FBF3F103FB1166F6B2CB
:1057A000013DDAE747F00407384603B0BDE8F08F63
:1057B0000027F9E7C8150020074B5A78824209D91B
:1057C0001A1892F842212AB9062202FB003000F58D
:1057D0008570704700207047C8150020064B5A7826
:1057E000824281BF1B1893F83A01B0FA80F0400959
:1057F00098BF0020704700BFC815002030B50024B6
:10580000A0F85240B0F8564042F210754C43B4FB39
:10581000F2F4A0F85640541E05FB0343B3FBF2F329
:10582000A0F85430094BB3FBF2F30133A0F85A301F
:10583000B0F84C3005FB0344436CB4FBF2F459431D
:105840008464B1FBF2F2426430BD00BF005A6202D0
:1058500070B504460D4659BB4FF480620BF08AFBCD
:10586000012384F8CE30492384F81B31042384F8C3
:105870001C316FF03B0384F81D316F2384F81E3117
:105880006FF03F0384F81F312B2384F81A31FE2375
:1058900084F856317F2384F8C5301E4BC4F8B030ED
:1058A000202384F8205184F8215184F8843370BD7A
:1058B000012922D10023C269A0F80E3380F80333F6
:1058C000154B1344B3FBF2F3C0F8F03040F6B83395
:1058D000A0F8F4301146C38CA830FFF78FFF10F00A
:1058E0001DFF30B1206AFEF741FD10B984F8F05277
:1058F000DDE7002384F8F032D9E70229D7D1B0F8E8
:10590000DA33D0F8D423C169BDE87040A830FFF77E
:1059100075BF00BF00E0FCFF7FC3C90170B504463E
:105920000D4659BB4FF462720BF024FB012384F83F
:10593000CE30492384F81B31042384F81C316FF0E6
:105940003B0384F81D316F2384F81E316FF03F0351
:1059500084F81F312B2384F81A31FE2384F8563142
:105960007F2384F8C530144BC4F8B030202384F86A
:10597000205184F8215184F8193370BD012912D1C6
:10598000C2690E4B1344B3FBF2F3C0F8F03040F69B
:10599000B833A0F8F430C38C114604F1A800BDE878
:1059A0007040FFF72BBF0229E7D1B0F84633D0F89B
:1059B0004023C169F1E700BF00E0FCFF7FC3C901DC
:1059C000034B80F880101B680BB1008818477047A4
:1059D000DC000020074B93F900301844142804DC45
:1059E00010F17F0F03DB40B27047142070476FF057
:1059F0007E00704790170020084B1B785B4240FAEE
:105A000083F0142804DC10F17F0F03DB40B27047F1
:105A1000142070476FF07E00704700BF9017002081
:105A200007B57F230DF107008DF8073006F0DAF88F
:105A30009DF9073068B10A4A5078404243FA80F035
:105A4000142808DC10F17F0F07DB40B203B05DF8CB
:105A500004FB1846FAE71420F8E76FF07E00F5E73C
:105A600090170020014B1870597070479017002054
:105A7000024B00221A705A70704700BF9017002026
:105A8000014B93F90000704790170020014B93F9E8
:105A90000100704790170020054B1B7833B9054B68
:105AA0001A681B790260037101207047002070475B
:105AB0009217002020000020054BFF221A70054A93
:105AC000016811600179117100221A70704700BFDE
:105AD000921700202000002007B5064B18680090A0
